:100000000C9406030C943E030C943E030C943E03A4
:100010000C943E030C943E030C943E030C943E035C
:100020000C943E030C943E030C9404280C94D628A4
:100030000C94E3220C943E030C943E030C943E0378
:100040000C943E030C943E030C943E030C943E032C
:100050000C943E030C946B230C943E030C943E03CF
:100060000C943E030C943E030C943E030C943E030C
:100070000C943E030C943E030C943E030C943E03FC
:100080000C943E030C943E030C943E030C943E03EC
:100090000C943E030C943E030C943E030C943E03DC
:1000A0000C943E030C943E030C943E03FD06FD06A7
:1000B00029072907A407C207F708F708CD0766082C
:1000C0007708770843296A29622A6A29622AB629A9
:1000D000D929622A302A3F2A68747470733A2F2F04
:1000E000716D6B2E666D2F0A00514D4B2069732088
:1000F0007468652062657374207468696E67206532
:10010000766572210029003A003C003E0040004222
:10011000004400460048002E0235001F0021002345
:1001200000250027002E004A00530038002B001A3B
:100130000015001C000C00130030004D005F006132
:10014000003900160009000B000E00330031005288
:10015000005C005700E1001B001900110036003858
:1001600000280051005A005800E000E2002C001066
:1001700000E600E700E4004F006300A900E300068A
:100180000005000D003700E500500062005B002E06
:10019000021D0007000A0018000F0034004C00592F
:1001A000005E00AA00040008001700240012002FBF
:1001B0000049004E005D0056001400200022002E71
:1001C0000226002D002A004B00600055001E003B57
:1001D000003D003F0041004300450047006700B379
:1001E0000000000000000000002A2B280000000092
:1001F00000000000000000000000000029000000D6
:10020000002C1E3420212224342627252E362D377B
:1002100038271E1F202122232425263333362E374C
:10022000381F0405060708090A0B0C0D0E0F1011E4
:1002300012131415161718191A1B1C1D2F313023F1
:100240002D350405060708090A0B0C0D0E0F1011B9
:1002500012131415161718191A1B1C1D2F313035BF
:100260004C00000000000000000000000000000042
:10027000000000000000000000000000000000007E
:1002800000000000007E0F00D4FFFFFFC700000049
:100290007800047F3F1F643214643214783C1E1EC1
:1002A000140A052223252628292A2C2D2F30323303
:1002B0003536383A3B3D3E4042434547494A4C4E2D
:1002C0005051535557595A5C5E6062646668696B59
:1002D0006D6F71737577797B7D7F81838587898A5F
:1002E0008C8E90929496989A9C9E9FA1A3A5A7A865
:1002F000AAACAEAFB1B3B4B6B8B9BBBCBEBFC1C295
:10030000C3C5C6C7C9CACBCCCDCED0D1D2D2D3D427
:10031000D5D6D7D7D8D9D9DADADBDBDBDCDCDCDC45
:10032000DCDDDDDDDDDCDCDCDCDCDBDBDBDADAD913
:10033000D9D8D7D7D6D5D4D3D2D2D1D0CECDCCCB95
:10034000CAC9C7C6C5C3C2C1BFBEBCBBB9B8B6B4B3
:10035000B3B1AFAEACAAA8A7A5A3A19F9E9C9A9843
:10036000969492908E8C8A89878583817F7D7B7914
:10037000777573716F6D6B6968666462605E5C5AF5
:100380005957555351504E4C4A4947454342403EB8
:100390003D3B3A3836353332302F2D2C2A2928264A
:1003A000252322FFAA7F554000010101010101011F
:1003B000010102020202020202020203030303031A
:1003C00003030304040404040404050505050506E9
:1003D00006060606070707070708080808090909A7
:1003E000090A0A0A0B0B0B0C0C0C0D0D0D0E0E0E50
:1003F0000F0F0F10101111111212131314141515E1
:1004000016161717181819191A1A1B1B1C1D1D1E52
:100410001E1F2020212222232424252626272829A6
:10042000292A2B2C2D2D2E2F3031323233343536D4
:100430003738393A3B3C3D3E3F40414243444546D4
:100440004748494A4C4D4E4F5051535455565859B0
:100450005A5B5D5E5F616264656668696B6C6D6F57
:100460007072737577787A7B7D7E808283858788CA
:100470008A8C8E8F91939596989A9C9EA0A2A3A504
:10048000A7A9ABADAFB1B3B5B7BABCBEC0C2C4C605
:10049000C9CBCDCFD1D4D6D8DBDDDFE2E4E7E9EBC1
:1004A000EEF0F3F5F8FAFDFF0803610065006B005C
:1004B00000000A0364006A00760073000000040371
:1004C000090409023B00020100A0FA09040000012E
:1004D00003010100092111010001224000070581EB
:1004E00003080001090401000103000000092111B3
:1004F00001000122BC000705820320000112010057
:100500000200000008091209920100010200010521
:10051000010902A10185020901A1000509190129AA
:100520000515002501950575018102950175038169
:10053000010501093009311581257F950275088172
:100540000609381581257F950175088106050C0A75
:1005500038021581257F950175088106C0C0050107
:100560000980A101850319012AB700150126B700EA
:10057000950175108100C0050C0901A101850419C0
:10058000012AA002150126A002950175108100C064
:1005900005010906A1018506050719E029E71500EF
:1005A00025019508750181020507190029EF15003D
:1005B000250195F0750181020508190129059505A8
:1005C00075019102950175039101C005010906A10C
:1005D00001050719E029E715002501950875018136
:1005E000029501750881010507190029FF150026EC
:1005F000FF00950675088100050819012905950574
:1006000075019102950175039101C00011241FBE6F
:10061000CFEFDAE0DEBFCDBF04B603FE18C0809195
:10062000540390915503A0915603B091570387301E
:10063000904BA740B04B59F41092540310925503BD
:100640001092560310925703E0E0F8E3099511E089
:10065000A0E0B1E0EAE2F7E502C005900D92A83C07
:10066000B107D9F723E0A8ECB1E001C01D92A43591
:10067000B207E1F70E9464150C94932B0C940000D0
:10068000873A2DE5920721F0883A9D4541F00FC049
:10069000FB018281882359F089EE90E006C0FB01BE
:1006A0008281882321F088ED90E00E94F80481E0A7
:1006B000089581E008950C94400308950C945D031F
:1006C0001F93CF93DF9300D000D01F92CDB7DEB73A
:1006D00049835A836B833091CB0189819A8131118F
:1006E00014C0662359F0222349F00E94360B182FBC
:1006F000682F89819A810E94DF0A03C00E940A0B39
:10070000182F69817A81812F04C00E94360B69817C
:100710007A810F900F900F900F900F90DF91CF91F3
:100720001F910C94CF12FC01262F408151816281D0
:10073000738184810C94600381E00895CF93DF93EB
:10074000EC0160E00E949303BE01DF91CF910C9415
:100750005E030C9415140C94111408950E948909D9
:100760000E94AD032FEF84E39CE021508040904035
:10077000E1F700C000000C9491230F931F93CF93D7
:10078000DF93EC018B010E945B03882309F444C0D2
:10079000B801CE010E942E218823F1F1B801CE01CB
:1007A0000E94421F8823C1F1B801CE010E948A2015
:1007B000882391F1B801CE010E94481E882361F17F
:1007C000F8018281882309F1CB358DE5D807C1F086
:1007D00050F4C115FCE5DF0781F0CF3DDC45A9F4FD
:1007E0000E94CC1019C0CC35EDE5DE0761F0CD35A7
:1007F000DD4559F40E940F1008C00E94AE030CC0E2
:100800000E94181002C00E941B10C801DF91CF91F6
:100810001F910F910C94590380E0DF91CF911F91AC
:100820000F910895CF93DF93EC0161E00E94930351
:10083000BE01DF91CF910C94BD030E94C5220C94A0
:100840000C050E940F050C94CB22DF92EF92FF92D1
:100850000F931F93CF93DF93E82FF0E0EF51FE4FFC
:10086000D490282F26952695269530E0F901EF574C
:10087000FD4F0491877010E0082E02C01595079572
:100880000A94E2F701701127F901EF58FD4FE49047
:10089000F12C082E02C0F594E7940A94E2F791E057
:1008A000E922FF24F901EF59FD4FC491D0E002C0C5
:1008B000D595C7958A95E2F7C170DD270115110519
:1008C00019F081EE0E948205E114F10419F086EE20
:1008D0000E9482058D2D0E94AB06EF2819F086EE4E
:1008E0000E942C06012B19F081EE0E942C06CD2BC4
:1008F00051F08CE2DF91CF911F910F91FF90EF901B
:10090000DF900C94AB06DF91CF911F910F91FF9078
:10091000EF90DF900895EF92FF920F931F93CF9384
:10092000DF938C01F62E8AE0E82EF801849188236B
:1009300009F457C0813009F042C0E8012196FE0158
:100940008491813031F42196FE0184910E94AB069E
:1009500039C0823039F4E8012296FE0184910E9468
:10096000820530C0833039F4E8012296FE0184917B
:100970000E942C0627C0843029F5E8012296FE014A
:10098000249180E090E030E0205331092A30310595
:1009900060F4E89EA001E99E500D1124C901840F66
:1009A000951F2196FE012491EECF009759F0EFE9B3
:1009B000FFE03197F1F700C000000197F6CF0E94E9
:1009C0002504E8018E010F5F1F4F8F2D882309F446
:1009D000ACCFEFE9FFE03197F1F700C000008150A4
:1009E000F5CFDF91CF911F910F91FF90EF90089578
:1009F00060E00C948B0408950C94FB0481E008954E
:100A00000C94FE040895CF93C82F0E94FC048C2FF1
:100A10000E940005CF91089580E00C9403050E9488
:100A20008A210C9403050E948A219091CA0189179A
:100A300021F08093CA010C94030508950F931F932E
:100A4000CF93DF93CDB7DEB72B970FB6F894DEBF09
:100A50000FBECDBF4F83588769877A878B87611117
:100A60000E94240F8E010F5F1F4F86E0F801119244
:100A70008A95E9F785E0FE013796D80101900D923D
:100A80008A95E1F78091080382FD0CC00E94E70E71
:100A9000882319F082E00E94DD0F0E94CE0E8111A2
:100AA0000E94470F99818A812C813D81232B31F04F
:100AB0008F3F31F481E09F3F19F403C081E001C012
:100AC00080E080FF09C049815A816B817C818D81E2
:100AD0009E810E941D0E05C0C8010E949C038111C9
:100AE000F2CF2B960FB6F894DEBF0FBECDBFDF91CD
:100AF000CF911F910F910895FC01808191810E94F7
:100B0000780B0895CF93882309F4A4C0C82F8238A6
:100B1000C1F40E948A2181FD9DC069E38091020198
:100B2000909103010E9480220E94550F2FEF81EEC9
:100B300094E0215080409040E1F700C0000069E35C
:100B400019C0833801F50E948A2180FD83C063E5C6
:100B500080910201909103010E9480220E94550F12
:100B60002FEF81EE94E0215080409040E1F700C0EB
:100B7000000063E580910201909103010E948B22A5
:100B8000CF910C94550F8438C1F40E948A2182FDC4
:100B900061C067E480910201909103010E9480226C
:100BA0000E94550F2FEF81EE94E02150804090403D
:100BB000E1F700C0000067E4DDCF8CEF8C0F813AD5
:100BC000D0F46C2F80910201909103010E940022C9
:100BD000882349F06C2F80910201909103010E94BB
:100BE0008B220E94550F6C2F80910201909103017E
:100BF0000E948022C5CF80E28C0F883048F4C770F5
:100C000081E001C0880FCA95EAF70E94070FB8CFAC
:100C1000EBE5EC0FE33040F4F0E0E65AFE4F808164
:100C200090E0CF910C94BE21E8E5EC0FE73150F451
:100C3000F0E0EE0FFF1FE45DFE4F80819181CF91C8
:100C40000C94D421CD3E30F08C2F0E94E915CF9129
:100C50000C94D616CF910895882309F464C0823885
:100C600079F40E948A2181FF5EC069E380910201CC
:100C7000909103010E9480220E94550F69E310C0E9
:100C80008338B1F40E948A2180FF4DC063E58091D2
:100C90000201909103010E9480220E94550F63E59A
:100CA00080910201909103010E948B220C94550FB8
:100CB000843879F40E948A2182FF35C067E48091EC
:100CC0000201909103010E9480220E94550F67E467
:100CD000E7CF9CEF980F913A10F4682FE1CF90E2A4
:100CE000980F983050F4877091E001C0990F8A9561
:100CF000EAF7892F0E940D0FD9CF9BE5980F93300B
:100D000020F480E090E00C94BE2198E5980F973194
:100D100020F480E090E00C94D4218D3E20F00E94DD
:100D200051160C94D61608951F93CF93DF93182F66
:100D3000EB010E948205209741F08FE99FE0019727
:100D4000F1F700C000002197F6CF812FDF91CF91FE
:100D50001F910C942C06893319F060E070E002C0FA
:100D600060E570E00C949406882321F00E94070F40
:100D70000C94550F0895882321F00E940D0F0C94B8
:100D8000550F0895CF92DF92EF92FF920F931F932A
:100D9000CF93DF937C01D62FC72FFC0112810581F1
:100DA00002950F700E94FD0E8823B9F01123A9F05F
:100DB0008C2F807F803421F080E28D0F883068F0A6
:100DC0008091080382FD09C082E00E94DD0F0E942D
:100DD000FD0E91E0D82ED92601C0D12CCC2EC29484
:100DE0008FE0C8228C2D90E08C30910508F0FFC177
:100DF000FC01EA5AFF4F0C94EE2A8C2F807FCF70B3
:100E0000882311F0C295C07F112399F0CC2309F4F7
:100E1000D9C180E28D0F883010F0D11104C08C2F21
:100E20000E94070F03C08C2F0E94170F0E94550FBE
:100E3000C9C18D2F0E942C06CC2309F4D8C180E2B1
:100E40008D0F883040F1DD2331F18C2F0E941D0F72
:100E500025C08C2F807FCF70803211F0C295C07F6B
:100E6000DD2321F0D13009F446C04FC08091080342
:100E700082FF17C0112349F0CC2329F08C2F0E9448
:100E8000070F0E94550F80E09EC180E00E942C0653
:100E9000CC2309F4ACC18C2F0E940D0F0E94550F7A
:100EA000A6C11123B1F0002381F0013031F40E947A
:100EB000270F8C2B0E942F0F9AC1053031F40E940E
:100EC000470F8C2F0E94A30F2AC00E94270F8C2B44
:100ED00027C0002369F0013041F40E94040F8C23E5
:100EE00009F485C10E94AC0F03C0053009F47FC12D
:100EF0000E94470F25C0112321F0063008F077C16A
:100F00000EC0053008F073C11BC0112361F000232F
:100F100031F0F701858180FF55C18F7085838C2F5B
:100F20000E94B40664C1002359F0D93309F05CC1B2
:100F3000FFEF07EE13E0F15000401040E1F752C11F
:100F40008C2F0E94BB0653C18C2F8695869583708B
:100F500019F0813061F04BC1112321F08D2F9C2FAE
:100F6000937002C080E090E00E94BE2148C111232E
:100F700021F08D2F9C2F937002C080E090E00E94A2
:100F8000D4213DC18D2F112319F00E94E91502C013
:100F90000E9451160E94D61632C18C2F837009F020
:100FA00047C0111128C12D2F229526952770220F99
:100FB000220F6D2F6F70862F90E0A0E0B0E0022E20
:100FC00004C0880F991FAA1FBB1F0A94D2F7D4FF31
:100FD00010C04FE050E060E070E004C0440F551FC7
:100FE000661F771F2A95D2F74095509560957095AA
:100FF00003C040E050E0BA01C695C695C3708A01AF
:101000009B01082B192B2A2B3B2BC901B801C2309D
:1010100049F058F4C13019F00E94F509ECC00E9463
:10102000E309E9C00E94070AE6C00E94E109E3C0A3
:10103000112319F08C2F817001C08695882309F443
:10104000DAC02D2F229526952770220F220F6D2FA3
:101050006F70862F90E0A0E0B0E0022E04C0880FF1
:10106000991FAA1FBB1F0A94D2F7D4FF10C04FE0EC
:1010700050E060E070E004C0440F551F661F771F0A
:101080002A95D2F7409550956095709503C040E041
:1010900050E0BA01C695C695C3708A019B01082B22
:1010A000192B2A2B3B2BC901B801C23049F058F447
:1010B000C13019F00E94BA0A9EC00E94A80A9BC0C3
:1010C0000E94CC0A98C00E941B0A95C0CF701123C1
:1010D00039F08C2F0E94410A8D2F0E94B4068BC0DC
:1010E0008D2F0E94BB068C2F0E94620A84C0D23FC3
:1010F00021F128F4D03F41F0D13FC1F05EC0D33F91
:1011000019F1D43F79F059C0112341F0053008F0AE
:101110006EC08C2F8F710E94870A69C0063008F05C
:1011200066C0F7CF8091080382FF18C0112339F001
:101130008C2F8F710E94410A5AC01123C9F38C2F42
:101140008F710E94620A53C0112329F08C2F8F7176
:101150000E942C0A4CC00E94270A49C01123C9F0E2
:101160000E94CB0E0E940D0F0E94E30E843039F4D2
:101170000E94D40F8C2F8F710E94620A5BC00530D1
:1011800008F058C0CF718C2F0E94410A63E08C2F69
:101190000DC00E94CB0E0E94070F053050F00E9438
:1011A000D40F0E94AC0F64E08C2F8F710E94B80F97
:1011B00041C081E00E94DD0F3DC0112339F00023C2
:1011C00009F4B6CF8D2F0E94820511C0002309F4C7
:1011D000B6CFD93349F41FEF27EE33E0115020404A
:1011E0003040E1F700C000008D2F0E942C0688EFF0
:1011F0008C0D843020F40E948A210E940305DD209A
:10120000D9F00E94E30E80FD17C0F70112820E9400
:10121000DD0E0E94410AC7010E943D090E94DD0EB9
:10122000DF91CF911F910F91FF90EF90DF90CF90C2
:101230000C94620AD12CDFCFDF91CF911F910F91D7
:10124000FF90EF90DF90CF9008950F931F93CF936F
:10125000DF93EC01688179818A810E94830B8C0184
:101260000E94DE0A0E94CF09B801CE010E94C20688
:10127000DF91CF911F910F910895CF93DF93EC01F0
:10128000988189812B813C81232B31F08F3F31F470
:1012900081E09F3F19F403C081E001C080E080FD40
:1012A0001DC0CE010E941204811110C00E94FD0ECB
:1012B0008823A1F08A81882389F08091080382FD28
:1012C0000DC082E0DF91CF910C94DD0FCE010E9422
:1012D0002509CE01DF91CF910C949E03DF91CF9130
:1012E000089580E090E00E94BE2180E090E00E949E
:1012F000D4210E94240F0E94550F0E9407180C94BD
:10130000D61680910201909103010E9496220C94BE
:1013100071090E94140F0C94810992959F70963068
:1013200079F010F4925001C09A50923068F4803FE6
:1013300069F018F4883E40F409C0843F29F406C0DF
:10134000883E20F0813F11F080E0089581E008950B
:10135000FC01808191810E94780B0E948D09089583
:10136000CF93DF9300D000D01F92CDB7DEB70F90A0
:101370000F900F900F900F90DF91CF910895CF9322
:10138000DF9300D000D000D0CDB7DEB726960FB6E1
:10139000F894DEBF0FBECDBFDF91CF9108950895C1
:1013A00008950C94D0090C94D1090E94D30960933C
:1013B00016027093170280931802909319020C94EE
:1013C00071090C94D5090F931F9300911602109187
:1013D00017022091180230911902602B712B822B79
:1013E000932B1F910F910C94D5090F931F9300918C
:1013F00016021091170220911802309119026023F1
:101400007123822393231F910F910C94D5090F937D
:101410001F9300911602109117022091180230912B
:10142000190260277127822793271F910F910C942F
:10143000D5090C94D0090E94190A60931202709386
:10144000130280931402909315020C94710960E0CA
:1014500070E0CB010C941B0A0F931F9341E050E006
:1014600060E070E08A019B0104C0000F111F221F81
:10147000331F8A95D2F7C901B8011F910F910C94BF
:101480001B0A0F931F9341E050E060E070E004C03E
:10149000440F551F661F771F8A95D2F7809112025D
:1014A00090911302A0911402B09115028A019B0140
:1014B000082B192B2A2B3B2BC901B8011F910F9127
:1014C0000C941B0A0F931F9341E050E060E070E022
:1014D00004C0440F551F661F771F8A95D2F74095A9
:1014E0005095609570958091120290911302A09191
:1014F0001402B09115028A019B01082319232A23A3
:101500003B23C901B8011F910F910C941B0A0F9343
:101510001F9341E050E060E070E004C0440F551FAD
:10152000661F771F8A95D2F780911202909113025D
:10153000A0911402B09115028A019B010827192776
:101540002A273B27C901B8011F910F910C941B0A50
:101550000F931F9300911202109113022091140215
:1015600030911502602B712B822B932B1F910F91C1
:101570000C941B0A0F931F930091120210911302F7
:10158000209114023091150260237123822393234A
:101590001F910F910C941B0A0F931F93009112023D
:1015A00010911302209114023091150260277127C7
:1015B000822793271F910F910C941B0A08952AE00C
:1015C000929F800D1124E82FE695E695E6958770A9
:1015D00051E001C0550F8A95EAF785E0E89FF001D8
:1015E0001124E453FE4F20E030E070E04081CB0155
:1015F000022E02C0969587950A94E2F78170819534
:1016000084278523842781932F5F3F4F2530310521
:1016100069F708952AE0929F800D1124682F66953E
:1016200066956695982F977085E0689FB0011124A4
:1016300040E050E080E0FB01E40FF51FE453FE4F73
:10164000208130E0092E02C0369527950A94E2F7F2
:1016500021703327042E01C0220F0A94EAF7822B4F
:101660004F5F5F4F4530510531F70895BF92CF92DC
:10167000DF92EF92FF920F931F93CF93DF938C0132
:10168000C0901202D0901302E0901402F090150264
:101690008091160290911702A0911802B091190240
:1016A000C82AD92AEA2AFB2ACFE1D0E0D701C6010D
:1016B0000C2E04C0B695A795979587950A94D2F7F6
:1016C00080FD04C0219790F7B12C07C0BC2EB80153
:1016D0008C2F0E94E2120197A9F38B2DDF91CF91FD
:1016E0001F910F91FF90EF90DF90CF90BF900895E2
:1016F000CF93DF93EC010E94360BBE010E94E212F1
:10170000DF91CF9108951F93CF93DF93EB019091D9
:10171000CB01992321F0CB010E94780B13C08823C1
:1017200049F0CB010E94360B182F682FCE010E9482
:10173000DF0A04C0CB010E940A0B182FBE01812FC3
:101740000E94E212DF91CF911F9108951F93CF93D2
:10175000DF93C0911A0216E080911B02C81799F01E
:10176000D0E01C9FF0011D9FF00D1124E45EFD4FA1
:101770004081518162817381848195810E94BF097A
:101780002196C770E9CFDF91CF911F9108954091C5
:101790004C0250914D0260914E0270914F02809127
:1017A0005002909151020C94BF09EF92FF920F9357
:1017B0001F93CF93DF938091510282958F7009F030
:1017C00065C080914E02882309F460C080911A029E
:1017D000F0901B0210914C0200914D0260914F025B
:1017E0007091500291E01F3F09F090E0C09100011C
:1017F000D0910101292F96E0E92E8F1509F446C0FA
:101800006115710521F00F3F21F030E003C031E098
:1018100001C0322F90E030FD36C0E89EF001E99E15
:10182000F00D1124DF01A45EBD4F11963C9111977C
:10183000301329C03C91311326C012963C91129767
:10184000311121C013964D915C911497461B570B93
:101850004C175D07C0F4809151028F7080618093B6
:101860005102EF5DFD4F80818F70806180838CE439
:1018700092E00E943D09DF91CF911F910F91FF905F
:10188000EF900C94A60B01968770B7CFDF91CF91A4
:101890001F910F91FF90EF9008959F92AF92BF928A
:1018A000CF92DF92EF92FF920F931F93CF93DF932C
:1018B000CDB7DEB761970FB6F894DEBF0FBECDBFD0
:1018C0008C0185E0F801DE011D9601900D928A954C
:1018D000E1F7D8011296EC9090914C02E0914D0204
:1018E00020914F02309150022115310531F0EF3F28
:1018F00031F481E09F3F19F403C081E001C080E032
:10190000B82FB1709B2E80FD47C1D8014C91119624
:101910005C9111971396AD90BC9014978CE4C82EEF
:1019200082E0D82EF0904E02B501621B730B20911D
:10193000000130910101FF2009F4D9C080915102CA
:101940006217730708F095C0282F207F09F052C056
:101950005E1313C0491311C0FE2CE1100EC08F702E
:101960008061809351020E94C70BC6010E943D090D
:1019700080915102F80185834DC1AB2831F05F3F62
:1019800031F481E04F3F19F403C081E001C080E0F1
:1019900080FD03C081E08E2502C080E090E0F82F3A
:1019A000F170FF2E80FF1CC080911A0220911B0253
:1019B00036E0821709F40BC190E0389FF001399F9F
:1019C000F00D1124E45EFD4F6181561306C0608165
:1019D000461303C06281E61203C001968770E9CF07
:1019E000FE2CEE2009F416C1809151028160809393
:1019F000510254C05E1306C0491304C0E11002C076
:101A0000F80199C0C8010E94A809882361F1EE205D
:101A100051F120915102822F82958F7090E00297B0
:101A200074F080914C0290914D0298878F831986B3
:101A3000BB86AA862C87CE0107960E943D0986E0C8
:101A4000F801ACE4B2E001900D928A95E1F70E94B2
:101A5000D50B0E94C70B0AC05E1711F1C8010E9486
:101A6000A80981112CC0C8010E943D09FF24F394EC
:101A7000D1C0282F207F81F77A2DB98AA88A6E2DB0
:101A800089890E94B0098CE492E00E943D0986E0B9
:101A9000D6011D928A95E9F70E94C70BF12CBAC0B6
:101AA0004913DCCFE110DACFF8018583C8010E9429
:101AB0003D0986E0D6011D928A95E9F7ABC0EE207C
:101AC00091F220915102822F82958F7090E00297BF
:101AD0000CF4B5CF80914C0290914D029A8389838A
:101AE0001B82BD82AC822E83CE010196A6CF6217E7
:101AF000730708F044C0FE2CEE2009F4B4CF5E1347
:101B000030C049132EC02091510220FD21C0822FE8
:101B100082958F70482F50E041155105C9F0F801AA
:101B200025834F30510541F08F5F982F9295907F1C
:101B3000822F8F70892B8583C8010E943D0986E022
:101B4000F801ACE4B2E001900D928A95E1F73CC057
:101B500086E0F801ACE4B2E001900D928A95E1F7DD
:101B600059C0C8010E94A809811169CF8091510212
:101B7000816080935102C8010E943D094BC07A2DBB
:101B8000B98AA88A6E2D89890E94B00986E0D6019B
:101B90001D928A95E9F718C0EE2009F464CFC801B8
:101BA0000E94A809F82E882309F45DCF86E0F80189
:101BB000ACE4B2E001900D928A95E1F78CE492E0FA
:101BC0000E947C050E94D50B0E94C70B23C04D8745
:101BD0005E878D859E850E94780B292F22952F7018
:101BE000223028F49F7039F0811105C00BC02430D9
:101BF00028F49F7049F4805E883020F0C8010E946C
:101C00003D099F2CF92C06C0D80115969C91907F18
:101C100091F7F8CF8F2D61960FB6F894DEBF0FBE07
:101C2000CDBFDF91CF911F910F91FF90EF90DF908B
:101C3000CF90BF90AF909F9008951F93CF93DF9365
:101C4000CDB7DEB72C970FB6F894DEBF0FBECDBF71
:101C50004F83588769877A878B879C87CE01079641
:101C60000E944D0C8823D1F09F8188852A853B8571
:101C7000232B31F08F3F31F481E09F3F19F403C0F3
:101C800081E001C080E080FD47C04F8158856985B3
:101C90007A858B859C850E94BF093EC086E0FE0147
:101CA0003796DE01119601900D928A95E1F7FF813A
:101CB000E8856A857B856115710531F0EF3F31F468
:101CC00081E0FF3F19F403C081E001C080E080FDA6
:101CD00023C020911B0230E0C9010196877099272B
:101CE00040911A0250E084179507F1F1F983EA83D5
:101CF0007D836C8396E0929FD001939FB00D112459
:101D0000A45EBD4FFE01319601900D929A95E1F7C8
:101D100080931B020E94A60B16E080911A029091FC
:101D20001B02891771F1189FC0011124845E9D4F19
:101D30000E944D0C882329F1E0911A021E9FF001A8
:101D40001124E45EFD4F4081518162817381848161
:101D500095810E94BF0980911A0290E001968770D8
:101D6000992780931A02D9CF0E94890910921B02E9
:101D700010921A02ECE4F2E086E0DF011D928A95EF
:101D8000E9F72C960FB6F894DEBF0FBECDBFDF91FA
:101D9000CF911F9108958091770208950E94442366
:101DA0002091750230917602821B930B9C0181E099
:101DB0002838334108F480E00895809174028595B5
:101DC00085958595089580917402877008950E9485
:101DD00044232091720230917302821B930B883846
:101DE000934140F08091740282FB882780F991E052
:101DF000892701C080E081700895909174029770E6
:101E000081E009F480E0089580919A02089590910C
:101E10009A02892B80939A020895809590919A0254
:101E2000892380939A02089510929A0208959091BE
:101E30009902892B80939902089580959091990237
:101E400089238093990208951092990208958091B0
:101E50007802089508950C942A0F0C942B0FCF93B9
:101E60009091080392FD11C090917802981769F043
:101E7000C82F0E9444239093760280937502C093EA
:101E800078028C2FCF910C942D0FCF9108958091D3
:101E90007802882349F0109278021092760210920C
:101EA000750280E00C942D0F0895CF93DF93E0919D
:101EB0000201F091030180919A028083E091020176
:101EC000F0910301908180919902892B8083809108
:101ED00078028823B9F00E94CE0E81110E94470F2C
:101EE000E0910201F0910301908180917802892BA9
:101EF000808380910201909103010E94EA21811167
:101F00000E94470FC0910201D091030140E250E0CE
:101F100062E572E0CE010E943E2B892B69F080E2DF
:101F2000FE01A2E5B2E001900D928A95E1F7CE01A3
:101F3000DF91CF910C949621DF91CF9108950C946D
:101F40002A0F0C949F0F90917702981721F080939D
:101F500077020C94A10F089580917702882329F0CD
:101F60001092770280E00C94A10F08950C942A0F30
:101F70009091080392FD16C098E0899F900111246A
:101F8000262B209374020E94410A0E9444239093BE
:101F90007302809372028091740285958595859570
:101FA0000C94B60F0C94410A1092740210927302B2
:101FB0001092720280E00C94B60F2091740280950A
:101FC000822380937402982F977099F430E0482F01
:101FD000082E000C550B2417350759F09091080373
:101FE00092FD07C08595859585950E94620A0C949F
:101FF000D40F08959091080392FB222720F9281707
:1020000069F080FB92F99093080380910703909107
:1020100008030E94481082E00C94DD0F089580911F
:10202000080382FB882780F991E089270C94FA0F36
:1020300081E00C94FA0F80E00C94FA0F6FEF7FEFC1
:1020400080E090E00C947D2B80E090E00E94592B82
:1020500021E0893E9E4F09F020E0822F089582E022
:1020600090E00C944B2B83E090E00C944B2BCF939F
:1020700084E090E00E944B2BC82F82E290E00E9407
:102080004B2B2C2F30E0A901582BCA01CF9108957A
:10209000CF93C92F682F84E090E00E945F2B6C2FB4
:1020A00082E290E0CF910C945F2BAB01BC018FE0FA
:1020B00090E00C94712BAB01BC0183E190E00C9497
:1020C000712B60E070E0CB010C945B1060E070E07D
:1020D000CB010E9455100C94611069EE7EEF80E0F8
:1020E00090E00E947D2B60E082E090E00E945F2BF8
:1020F00060E083E090E00E945F2B10921602109245
:102100001702109218021092190260E084E090E029
:102110000E945F2B60E082E290E00E945F2B60E013
:1021200085E090E00E945F2B60E086E090E00E94F6
:102130005F2B6FEF87E090E00E945F2B40E050E064
:10214000BA0188E090E00E94712B60E08DE090E0A1
:102150000E945F2B40E050E0BA0188E190E00E94CD
:10216000712B60E087E190E00E945F2B40E050E03F
:10217000BA018CE190E00E94712B60E070E080E297
:1021800090E00E947D2B40E050E0BA0188E190E0B1
:102190000E94712B0C9466100C946D10682F8EE0C9
:1021A00090E00C945F2B0E9450236093B5027093D3
:1021B000B6028093B7029093B8026093B102709315
:1021C000B2028093B3029093B402089585B78068F9
:1021D00085BF85B7806885BF089581E008950C9418
:1021E000ED1008950C94F1100C94F1100C94F4106F
:1021F0000C94F1100C94F8100C94F1100E94E6105D
:102200008EEB93E10E9480210E94FC100C94FA1046
:102210000E94F2100C94F1100E94D8130C94020545
:102220000E943B230E94BD140E940C110E94671D56
:102230000C94F6105F926F927F928F929F92AF9262
:10224000BF92CF92DF92EF92FF920F931F93CF93A3
:10225000DF93CDB7DEB72A970FB6F894DEBF0FBE77
:10226000CDBF0E94D214C82E81110E94D3103BE929
:10227000832E32E0932E00E010E0502E802F0E943B
:10228000FC135C01F401619071904F01682679267E
:1022900061147104B1F40F5F1F4F0B30110569F722
:1022A0008FEF89838A831B820E9444238160782F69
:1022B0009D838C8349815A816B818D810E941E058B
:1022C0003AC08091B90281FD0E940514D12CEE2400
:1022D000E394F12CC3018E219F21892B29F10E94C7
:1022E000EF108823A9F0DE825F82AE20BF2081E05C
:1022F000AB2809F480E088870E9444238160782F0E
:102300009A8789874E815F8168858A850E941E052C
:10231000000F111FF801E556FD4F80819181E826DD
:10232000F926F182E08207C0D394EE0CFF1CFAE09C
:10233000DF12D0CFB0CF81E0C11001C080E02A967B
:102340000FB6F894DEBF0FBECDBFDF91CF911F91C6
:102350000F91FF90EF90DF90CF90BF90AF909F9044
:102360008F907F906F905F9008950E941A110E9445
:102370009A1D0E94F4160C941305CF93DF930E94CC
:10238000E712EC01811521E5920708F045C081159F
:1023900030E5930708F094C0883E910528F5803E0B
:1023A000910508F0F8C0883A910570F4853A9105D6
:1023B00008F07CC08130910509F475C008F4E8C0CC
:1023C000049708F0E8C0E4C08F3B910508F0E0C036
:1023D000C85AD0E0CC0FDD1FC35ADE4F0990D88118
:1023E000C02DCE019464D8C0811540E2940758F402
:1023F000811551E0950708F0CEC08D3E910508F497
:10240000C7C09065C9C0C11580E4D80708F4C0C032
:10241000DF70CE01906AC0C0811525E59207A8F44F
:10242000811534E5930708F095C0811543E59407BD
:1024300008F07BC0811552E5950708F061C0D82FE0
:10244000CC27CE01816F906AA7C0C11589E5D80756
:10245000A0F4C11528E5D20708F082C0C11536E501
:10246000D30708F095C08C2F0E947B138F7190E0EA
:10247000D82FCC27CE0190628FC0C1154AE5D40772
:1024800008F474C0CE0190568115904208F080C0C7
:102490008D2F8F710E947B13DD27D0628F71AE016B
:1024A000582BCA0179C081E090E076C0C55AD0E0CF
:1024B000C557DE4F8881C82FD0E0CE0190646CC034
:1024C00074E0969587957A95E1F7282F23703C2F35
:1024D000337081E090E002C0880F991F3A95E2F7CF
:1024E0009C68AC01522B9A019C2F9F7096959695F3
:1024F00050E2959FE0011124C9018C2B9D2B4CC00B
:102500008370992721E030E002C0220F331F8A95A3
:10251000E2F79C2F9695969580E2989FE001112412
:10252000C22BD32BCE019C6837C08370992721E042
:1025300030E002C0220F331F8A95E2F79C2F969558
:10254000969540E2949FE0011124C22BD32BCE013B
:102550009A6822C0D82FCC27CE01846F906A1CC005
:10256000DC2FCC27CE01806F906A16C08C2F8F7025
:102570000E947B1394E0D695C7959A95E1F7CF70AA
:10258000D0E0DC2FCC27D0699E01282BC90104C0E4
:1025900080E090E001C0CE01DF91CF9108952EE65A
:1025A000829FC0011124FC012AE0729FE00DF11D01
:1025B0001124E60FF11DEE0FFF1FEB5FFE4F85911B
:1025C000949108950E94CF120E94BD1108958238FF
:1025D000910569F1B0F48133910509F46DC048F4B7
:1025E0008932910509F463C08A32910509F469C002
:1025F00008958533910509F455C089339105B9F0E3
:102600000895833E910569F138F4803E9105B1F05B
:10261000823E910509F10895863E9105A9F1873E14
:102620009105B9F1843E910509F064C023C0209161
:10263000070320FD4FC021FD4DC008958091070381
:1026400080FD44C08091080380FF44C0809107034F
:1026500084FD42C083EE4DC08091070382FF38C0E5
:10266000F5CF8091070382FD33C08091080380FD80
:1026700031C0ECCF8091080381FF32C08091070305
:1026800084FD2AC087EE35C08091070383FF26C0F2
:10269000F5CF8091070383FD21C08091080381FD60
:1026A0001FC0ECCF8091070385FD1CC01DC0809129
:1026B000070385FD19C016C08091070386FD16C06B
:1026C00017C08091070386FD13C010C089E311C0B5
:1026D00082EE0FC080EE0DC080E00BC086EE09C018
:1026E00084EE07C089E205C085E303C08AE201C029
:1026F00081E390E008959091070392FF0DC0282F89
:102700002871283019F4877F846006C0282F24712F
:10271000243011F48B7F886093FF0DC0282F28711F
:10272000283119F4877E846106C0282F2471243152
:1027300011F48B7E88612091080320FF0DC0382F93
:102740003871383019F4877F816006C0382F3171B5
:10275000313011F48E7F886021FF0DC0282F287141
:10276000283119F4877E816106C0282F217121311B
:1027700011F48E7E886194FD877E089580E008952F
:102780000C941E100E94D2148FE39CE90197F1F77C
:1027900000C000000E94D21480E00E94FC1380FF61
:1027A00004C00E94C0130C94912308950C94C2138A
:1027B0000E942410811102C00E94CC100E942F1090
:1027C0008093B9020E943710909308038093070307
:1027D0000E94D6130E943310682F70E080E090E0D2
:1027E0000E94E1096091120270911302809114021B
:1027F000909115020C94190AE82FF0E0EE0FFF1FDC
:10280000E15EFC4F808191810895089580EA8A9568
:10281000F1F7089500C008950C94061408950C94DF
:102820000E140C940F140C940E140C941314F894AE
:10283000E82FE295EF70F0E031A1282F2F7081E0B2
:1028400090E001C0880F2A95EAF7982F909593237E
:1028500091A392A1892B82A3789408950F931F933B
:10286000CF93DF93C8E9D1E089918F3F11F00E94A7
:10287000171481E0C33AD807B9F7CEE8D1E008E9E8
:1028800011E089918F3F11F00E9417140C171D075A
:10289000C1F7DF91CF911F910F910895BF92CF9211
:1028A000DF92EF92FF920F931F93CF93DF938C01F0
:1028B000C62FD0E0CE0188569E4F6C01FC0190815E
:1028C0009F3F09F450C0B62EF894E92FE295EF70BF
:1028D000F0E081A19F7021E030E001C0220F9A95C5
:1028E000EAF7822B81A382A12095282322A3789442
:1028F0000E940A14EEE8F1E048E951E021E030E0FE
:10290000E12CF12C61916F3F89F0A62FA295AF7059
:10291000B0E090968C9190E06F7002C0959587958D
:102920006A95E2F780FD02C0C90102C080E090E034
:10293000E82AF92A220F331F4E175F0719F7F6010D
:1029400080818F3F11F00E94171461E0E114F104BF
:1029500009F460E08B2D0E940C14CC0FDD1FC00F1A
:10296000D11FF982E882DF91CF911F910F91FF90E3
:10297000EF90DF90CF90BF9008950E942E1486E1D3
:10298000EFE1F3E0DF01982F1D929A95E9F7E9E076
:10299000F3E0DF011D928A95E9F78BE00E941D1597
:1029A0000C94A903FF920F931F93CF93DF93CDB79E
:1029B000DEB766970FB6F894DEBF0FBECDBF8E01AF
:1029C0000F5F1F4F86E1F80111928A95E9F7F12C0C
:1029D0006F2DC8010E944E14F394FBE0FF12F8CF54
:1029E00046E150E0B80189E093E00E943E2BFF24CD
:1029F000F394009709F4F12C892B41F086E1F8015A
:102A0000A9E0B3E001900D928A95E1F72F2D4BE0FC
:102A10006FE173E089E093E00E941E150E94AB0312
:102A20008F2D66960FB6F894DEBF0FBECDBFDF9137
:102A3000CF911F910F91FF9008950895FF920F93EA
:102A40001F93CF93DF93F82E092F162FD72FC42F64
:102A5000222349F081E08093BC020E94442390939A
:102A6000BB028093BA028091BC028823D9F0809186
:102A7000BA029091BB020E945C23059798F0EF2D5B
:102A8000F02FA12FBD2F80E090E04C2F50E0841755
:102A9000950734F4219131912D933D930196F7CF11
:102AA0001092BC02DF91CF911F910F91FF9008957A
:102AB0000E945C250E9410110C9468250E946C25D0
:102AC0000E94B5110C9486250E94E2220E944325A3
:102AD0000E94FE100E9458150E945E150E94081167
:102AE000FBCF8091C30280FF06C06091090170E0B6
:102AF000660F771F26C081FF04C06091090184E042
:102B000005C082FF07C06091090188E0689FB0019D
:102B1000112417C09091C2029923D1F0609108014D
:102B2000961788F72091090188E0289F90011124C9
:102B3000929FA001939F500D112470E0CA010E9442
:102B4000B82A6038710540F46115710519F406C0A2
:102B500068E070E0862F08958FE7089581E008957A
:102B60008091C30280FF08C06091050170E07595F7
:102B700067957595679521C081FF06C06091050135
:102B800070E07595679519C082FF04C060910501DA
:102B900070E010C09091C102992399F060910401F6
:102BA0009617A0F780910501899FC001112470E05C
:102BB0000E94B82A6038710540F46115710519F456
:102BC00006C061E070E0862F08958FE7089581E0E8
:102BD00008958D3E21F40E947115819504C08E3EAA
:102BE00029F40E9471158093C70208958F3E21F445
:102BF0000E947115819504C0803F29F40E947115CF
:102C00008093C6020895893F19F40E94B01505C04B
:102C10008A3F31F40E94B01581958093C8020895CF
:102C20008B3F21F40E94B015819504C08C3F29F49C
:102C30000E94B0158093C9020895813F21F48091CC
:102C4000C502816017C0823F21F48091C502826075
:102C500011C0833F21F48091C50284600BC0843F82
:102C600021F48091C502886005C0853F31F48091D0
:102C7000C50280618093C50208958D3F21F4809143
:102C8000C30281600BC08E3F21F48091C302826039
:102C900005C08F3F29F48091C30284608093C302F2
:102CA00008958D3E39F48091C70287FF6AC0109263
:102CB000C70267C08E3E29F48091C7021816BCF384
:102CC00060C09091C6028F3E29F497FF5AC01092BF
:102CD000C60257C0803F19F41916CCF352C0909128
:102CE000C802893F31F419160CF04BC01092C8028B
:102CF00048C08A3F19F497FF44C0F8CF8B3F39F49E
:102D00008091C90287FF3DC01092C9023AC08C3F32
:102D100029F48091C9021816BCF333C0813F21F415
:102D20008091C5028E7F17C0823F21F48091C50239
:102D30008D7F11C0833F21F48091C5028B7F0BC032
:102D4000843F21F48091C502877F05C0853F31F41F
:102D50008091C5028F7E8093C50213C08D3F21F400
:102D60008091C3028E7F0BC08E3F21F48091C302FD
:102D70008D7F05C08F3F29F48091C3028B7F8093A4
:102D8000C3028091C602811106C08091C7028111E1
:102D900002C01092C2028091C802811106C08091C7
:102DA000C902811102C01092C10208950E944423F9
:102DB0002091C602211104C02091C702222321F0D4
:102DC0009093C0028093BF022091C802211104C0D9
:102DD0002091C902222321F09093BE028093BD026C
:102DE00084EC92E00C94B021EF92FF920F931F932A
:102DF000CF93DF9300D000D000D0CDB7DEB786E010
:102E0000E4ECF2E0DE01119601900D928A95E1F773
:102E1000E090C602F090C7020091C8021091C9026A
:102E20001092C6021092C7021092C8021092C902F4
:102E3000E11003C0FF2009F45DC08091BF029091B2
:102E4000C0020E945C23AC019091C202992339F028
:102E500020910A0130E02417350758F04BC020912B
:102E60000B018AE0289F900111242417350718F0E0
:102E700041C09F3F19F09F5F9093C202EE2061F026
:102E80000E9471151E1414F09FEF01C091E0989FED
:102E9000902D11249093C602FF2061F00E947115BD
:102EA0001F1414F09FEF01C091E0989F902D112402
:102EB0009093C7023091C6023323E1F02091C702FC
:102EC0002223C1F045EB3403C0011124992319F0EA
:102ED0009093C60203C081E08093C60235EB2303C2
:102EE000C0011124992319F09093C70203C081E017
:102EF0008093C702011103C0112309F45DC08091C2
:102F0000BD029091BE020E945C23AC019091C1026F
:102F1000992339F02091060130E02417350758F045
:102F20004BC0209107018AE0289F900111242417AB
:102F3000350718F041C09F3F19F09F5F9093C10281
:102F4000002361F00E94B015101614F09FEF01C02D
:102F500091E0989F902D11249093C802112361F065
:102F60000E94B015111614F09FEF01C091E0989FD8
:102F7000902D11249093C9023091C8023323E1F0BF
:102F80002091C9022223C1F045EB3403C001112472
:102F9000992319F09093C80203C081E08093C8027E
:102FA00035EB2303C0011124992319F09093C90232
:102FB00003C081E08093C9028091C60281110BC0D9
:102FC0008091C702811107C08091C802811103C09E
:102FD0008091C90281110E94D616EB82FC820D837A
:102FE0001E8386E0FE013196A4ECB2E001900D92C2
:102FF0008A95E1F726960FB6F894DEBF0FBECDBFD7
:10300000DF91CF911F910F91FF90EF900895E4EC25
:10301000F2E086E0DF011D928A95E9F71092C20284
:103020001092C1021092C3020895EF92FF920F9383
:103030001F93CF93DF938B01682F11110AC0442394
:1030400029F0E82FF0E0E855FC4F6491762F862FA9
:1030500075C0212F30E0E82FF0E0442321F0E8553F
:10306000FC4FE491F0E046E0049FC0011124CFEF53
:10307000D0E0BE010E94A42A4BEA4603C001479F4C
:10308000900D1124800F911D800F911D982F990F85
:10309000890FAE01421B530B4E9FD0014F9FB00DC5
:1030A0005E9FB00D11249B2F189FA0011124452F66
:1030B00055278E01041B150B0E9FA0010F9F500D6D
:1030C0001E9F500D11247E01E81AF108E29E800136
:1030D000E39E100DF29E100D1124212F3327C21BE9
:1030E000D30BCE9F9001CF9F300DDE9F300D11246A
:1030F00062307105A9F048F46115710569F061301D
:103100007105C9F48B2F752F0DC06430710581F0E6
:1031100058F06630710579F47E2F8B2F932F0DC0F8
:10312000832F7B2F9E2F09C08E2F7B2F952F05C0BD
:103130008E2F732F02C07E2F852F692FDF91CF91A5
:103140001F910F91FF90EF90089541E00E94151894
:10315000089508950E94A5180895CF93DF93762FC0
:10316000E901682F842F0E94AA18798368838A83D3
:10317000DF91CF91089580913503282F269530E077
:103180002115310519F48170826005C025323105A1
:1031900024F08170886480933503089588E090E07E
:1031A0000C94532BCF92DF92EF92FF926B017C0134
:1031B0000E94BB18B701A60188E090E0FF90EF9055
:1031C000DF90CF900C94712BE5E3F3E083E18083F3
:1031D00080E481838FEF8283838314826081718195
:1031E000828193810C94D2188091350380FF02C0B4
:1031F0008695089580E0089590913903933018F4EE
:103200009F5F90933903882351F06091350370914B
:10321000360380913703909138030C94D2180895A7
:1032200081E00C94FC1890913903992319F0915086
:1032300090933903882351F06091350370913603E0
:1032400080913703909138030C94D218089581E04F
:103250000C94131970E00C94171F60911001809169
:10326000350380FF0AC080910F0123E0829FC001D7
:103270001124865C9C4F0C942A1980911101909125
:103280001201891780F7E82FF0E09F01220F331F0A
:10329000E20FF31FE65CFC4F1182108212828F5FF7
:1032A000F0CF9091350390FF16C0909111012091BD
:1032B0001201921770F4E92FF0E0DF01AA0FBB1F93
:1032C000EA0FFB1FE65CFC4F8183608342839F5FB4
:1032D000F0CF0C942D190895CF93DF9300D01F9257
:1032E000CDB7DEB79091350390FF0AC09E012F5FE6
:1032F0003F4F0E94AD184B8169818A810E9451190C
:103300000F900F900F90DF91CF910895CF93DF939F
:10331000EC01EC81F0E0ED55FD4F4491E5E3F3E085
:10332000628181810E946C198C818F5F8C83DF9117
:10333000CF910895CF93DF93EC01E5E3F3E0438170
:1033400062818C810E946C198C818F5F8C83DF91EC
:10335000CF9108950F931F93CF93DF9300D01F92C7
:10336000CDB7DEB78C018091CA0281110AC09E01DF
:103370002F5F3F4F4FEF6FEF0E94AD188A81809310
:10338000CA02F8018481813051F028F0823061F462
:103390004091CA020AC08091CA0240E007C0609111
:1033A000CA0240E080E003C040E080E060E00E94AC
:1033B0005119F801848190E0019663E070E00E9469
:1033C000B82A84830F900F900F90DF91CF911F91B7
:1033D0000F910895AF92BF92CF92DF92EF92FF923A
:1033E0000F931F93CF93DF9300D01F92CDB7DEB71B
:1033F000182FF62E042FE22E9091350390FF6DC00A
:10340000E92FE695AE2FB0E0AD55BE4F8C9180937D
:10341000D4029E7F923061F49E012F5F3F4F812F37
:103420000E94AD184B8169818A810E94511943C065
:10343000823019F4009138033EC0863019F410919F
:10344000360339C08930D9F38931A9F5E9518E2F76
:103450008170D82EE695F0E0ED55FC4FA590B49024
:10346000C12CBB2460911301C61618F52C2D30E039
:10347000A29EC001A39E900DB29E900D112470E0FB
:103480000E94A42A812FD11002C0860F01C0861B82
:1034900090911101290F311DA901440F551F240FCF
:1034A000351F265C3C4F402F6F2D0E94AD18C394F2
:1034B000D9CF0E942D1910933603F0923703009351
:1034C0003803EE2051F060913503709136038091FE
:1034D0003703909138030E94D2180F900F900F90ED
:1034E000DF91CF911F910F91FF90EF90DF90CF90E0
:1034F000BF90AF900895E5E3F3E09181282F4381D9
:10350000628188E0890F0C94EA1981E00C947B1A9F
:10351000E5E3F3E09181282F4381628188EF890FF1
:103520000C94EA1981E00C94881AE5E3F3E06281D7
:1035300021E1620F08F46FEF282F438181810C9401
:10354000EA1981E00C94951AE5E3F3E0628121E148
:10355000621B08F460E0282F438181810C94EA19F2
:1035600081E00C94A41AE5E3F3E0438121E1420FEA
:1035700008F44FEF282F628181810C94EA1981E0D1
:103580000C94B31AE5E3F3E0438121E1421B08F414
:1035900040E0282F628181810C94EA1981E00C942B
:1035A000C21A20E00C94EA19FF920F931F93CF9355
:1035B000DF93EC01F12C0FEF10E060911301F61690
:1035C000F0F4809111012F2D30E0280F311DC90139
:1035D000880F991F280F391F265C3C4F70E0C801E7
:1035E0000E94B82A962F8C8140913803609137034E
:1035F000F99E800D11240E94AD18F394DECF0E9435
:103600002D199A818C8190FF02C08F5F01C081507B
:103610008C83DF91CF911F910F91FF900895AF920E
:10362000BF92CF92DF92EF92FF920F931F93CF93AF
:10363000DF93FC01828180FF02C00FEF01C001E037
:1036400010E043E0A42E80911301181708F043C046
:1036500080911101C12ED12CE601C80FD11DCE01E0
:10366000880F991FC80FD91FC65CDC4F19821882BA
:103670001A8234E0E32EF12CB12C8091CC028B0D18
:1036800084302CF06A2D0E94962A892F05C087FF6E
:1036900003C090911301890F082E000C990BC816D6
:1036A000D90691F4809138038E9DA0018F9D500D15
:1036B000112455954795559547959E01609137037F
:1036C000809136030E94AD18B00EF1E0EF1AF108B8
:1036D000A1F61F5FB8CF0E942D198091CC02013056
:1036E00031F4811102C080911301815007C090E034
:1036F00001966091130170E00E94B82A8093CC0279
:10370000DF91CF911F910F91FF90EF90DF90CF90BD
:10371000BF90AF900895CF938091110190911201C5
:10372000891770F4E82FF0E09F01220F331FE20F9A
:10373000F31FE65CFC4F1182108212828F5FF0CF84
:10374000C0E060911301C617C0F5EC2FF0E070E007
:10375000CF010E94B82A20911101820F2091CB0243
:10376000022E000C330B90E0E217F307CCF020910F
:103770000E01022E000C330B2E173F078CF09C011C
:10378000220F331F820F931F9C01265C3C4F4091F8
:10379000380360913703809136030E94AD180BC047
:1037A000FC01EE0FFF1F8E0F9F1FFC01E65CFC4F1C
:1037B000118210821282CF5FC4CF0E942D192091F6
:1037C0000D018091CB02820F8093CB0290910E016C
:1037D000920F90930E0119165CF4082E000C990BB1
:1037E0004091130150E041505109841795071CF096
:1037F000219520930D01CF9108958F929F92AF92C2
:10380000BF92CF92DF92EF92FF920F931F93CF93CD
:10381000DF938C01FC014481C42FD0E09E01DE01C6
:103820000E94FC2A9B01AC010E94122B6B017C01BF
:10383000E0E2F0E0EC1BFD0BA5E5B0E09B01AC0184
:103840000E94122B4B015C019F01DF010E94F42AB0
:103850009B01AC010E941D2B9B01AC012C0D3D1D59
:103860004E1D5F1DC501B4010E94CC2AC22FD22F6C
:103870002A3228F4F3E02F9F900111240DC025E592
:1038800030E02C1B3109C901880F991F280F391FFF
:1038900037FF02C02F5F3F4F35952795C22FC09548
:1038A000F12C85E5E82EED1A80911301F816C8F485
:1038B000F1FC02C08E2D01C08D2F909111012F2D92
:1038C00030E0290F311DA901440F551F240F351F6A
:1038D000265C3C4F4C2F609137030E94AD18F39447
:1038E000E3CF0E942D19F8018481811102C091E07B
:1038F00003C0803219F49FEF90930C0190910C015A
:10390000890FF8018483DF91CF911F910F91FF9070
:10391000EF90DF90CF90BF90AF909F908F900895E1
:103920000F931F93CF93DF93EC0100E010E08091A1
:103930001301282F30E00217130724F5909111018D
:103940009801290F311DA901440F551F240F351F60
:10395000265C3C4F869590E04C81081719071CF4B3
:10396000442331F002C0411103C04091380301C02B
:1039700040E060913703809136030E94AD180F5FDD
:103980001F4FD5CF0E942D198C8190E00196817038
:1039900099278C83DF91CF911F910F910895E5E3D3
:1039A000F3E080818E7F8083608171818281938149
:1039B0000E94D2181092D5022FEF80E792E021509A
:1039C00080409040E1F700C000000C942D196091F8
:1039D0003503669570E04BE050E084E191E00E9491
:1039E000312B892B19F481E08093D5020E94442366
:1039F0009093CE028093CD0208959091350390FF6D
:103A000035C09170811102C0926006C0853210F0FD
:103A1000986402C0880F982B90933503662351F069
:103A2000609135037091360380913703909138038C
:103A30000E94D21860913503669570E04BE050E02B
:103A400084E191E00E94312B892B19F01092D5026C
:103A500002C00E94E71C81E08093D00240913803AD
:103A600060913703809136030C94D11A0895682F22
:103A700090913503969581E0890F853208F081E0B9
:103A80000C94FD1C81E00C94371D682F9091350338
:103A900096958FEF890F09F484E20C94FD1C81E068
:103AA0000C94451D61E00C94FD1CE5E3F3E080817E
:103AB0008160808386950C94521D8091350380FD32
:103AC0000C94CF1C0C94551D60E00C94FD1C80914F
:103AD000D30281112EC00E942410811104C00E94C3
:103AE000CC100E94E4180E94CE18609335037093A6
:103AF000360380933703909338036E7F61F40E94FE
:103B0000E4180E94CE1860933503709336038093B7
:103B10003703909338030E94BB181092D50280910E
:103B2000350380FF03C086950E94641D81E0809369
:103B3000D30208950F931F93CF93DF938091D50203
:103B4000882309F485C08091D402E0913503E6957D
:103B5000E81BE093CF02823049F4F0E0E156FD4FDC
:103B6000E491CE2FD0E006E819E149C0863049F44F
:103B7000F0E0E456FD4FE491CE2FD0E00AE919E1E0
:103B80003EC0893051F4E695F0E0E756FD4FE491F0
:103B9000CE2FD0E004ED1AE132C08F3051F4E6951B
:103BA000F0E0EA56FD4FE491CE2FD0E00FE01BE1AC
:103BB00026C0853149F4F0E0ED56FD4FE491CE2F5B
:103BC000D0E00BE81BE11BC0883181F0833239F46F
:103BD000E1E9F2E0C591D4910AEA19E110C084321A
:103BE00051F4C4EFD1E000E91CE109C0C8E2D0E023
:103BF0000DEF1BE104C0C0EDD7E009EA18E18091A8
:103C0000D002882361F01092D0020E944423909346
:103C1000CE028093CD021092D2021092D1020E9465
:103C20004423E091CD02F091CE028E1B9F0B8F3F7B
:103C30009F4770F4EC0FFD1FF093CE02E093CD028E
:103C40008DEC92E0F801DF91CF911F910F910994D3
:103C5000DF91CF911F910F910895882311F0FA0100
:103C600001C0FB010994CF93DF93C82FD62F0E9488
:103C7000F4188C1740F00E94F4188D1720F4DF918F
:103C8000CF910C94421D8C2FDF91CF910C94521D3B
:103C90001F93CF93DF93FB0112811111C3C0EC017D
:103CA0000E94040F8272CD3CFCE5DF0709F49AC044
:103CB000A8F5C73CECE5DE0709F476C0A8F4C43CDF
:103CC0009CE5D90709F45FC028F4C33CDC4509F43E
:103CD00057C054C0C53C9CE5D90709F459C0C63C3F
:103CE000DC4509F45CC04AC0CA3CFCE5DF0709F4C6
:103CF0006AC050F4C83CECE5DE0709F45AC0C93C80
:103D0000DC4509F45BC03AC0CB3C9CE5D90709F41B
:103D10005FC0CC3CDC4509F460C030C0C23DFCE56E
:103D2000DF0709F46FC088F4CF3C9CE5D90709F49C
:103D300060C008F45CC0C03DFCE5DF0709F45CC06E
:103D4000C13DDC4509F45BC019C0C53D9CE5D90700
:103D500009F460C050F4C33DFCE5DF0709F455C029
:103D6000C43DDC4509F454C009C0C63D9CE5D907F3
:103D700009F455C0CE35DD4509F454C011E052C0F8
:103D80000E945D1D4FC04FE45DE162E47DE104C02F
:103D900042E45DE16FE47DE10E942D1E43C042E9F3
:103DA0005AE165E87AE1F8CF45E85AE162E97AE15B
:103DB000F3CF40EB5AE161EA7AE1EECF41EA5AE112
:103DC00060EB7AE1E9CF4EEC5AE16FEB7AE1E4CFB8
:103DD0004FEB5AE16EEC7AE1DFCF47E259E160E167
:103DE00079E1DACF40E159E167E279E1D5CF81E0CD
:103DF00017C065E082E010C068E086E00DC06EE0AC
:103E000089E00AC064E18FE007C067E185E104C092
:103E100088E106C062E289E10E94331E03C083E2AA
:103E20000E94521D812FDF91CF911F910895849A96
:103E300021B32F7E31B330614FB7F894FC01CB0131
:103E4000880F991F680F791F6E0F7F1FE617F707FE
:103E500089F0819198E031BB000000C087FF21BB51
:103E6000880F000000C000C000C021BB00C09A95B0
:103E700091F7ECCF4FBF8FE594E00197F1F700C0C9
:103E800000000895CF93DF93EC01FB01828188232A
:103E900009F43CC1C430FDE5DF0760F4CB3F9CE58D
:103EA000D90788F49E0122503C452431310508F0A1
:103EB0002EC109C0C236EDE5DE0729F0C63AFDE5A0
:103EC000DF0709F024C10E94371090930803809304
:103ED0000703C1318CE5D80709F4C6C008F042C019
:103EE000C930ECE5DE0709F49BC000F5C5308CE570
:103EF000D80709F485C078F4C330ECE5DE0709F48F
:103F000078C008F07AC0C230DC4509F0F5C0809175
:103F100007038160EFC0C7309CE5D90709F478C07A
:103F200008F07AC0809107038061E4C0CD30FCE5E1
:103F3000DF0709F487C058F4CB309CE5D90709F4B2
:103F400079C008F07BC08091070388606FC0CF30D4
:103F5000FCE5DF0709F480C008F082C08091070308
:103F6000877FC8C0CE3F9CE5D90709F471C000F532
:103F7000C531FCE5DF0709F485C068F4C3319CE571
:103F8000D90709F475C008F095C00E94890980918D
:103F900007038F77AFC0CC3FFCE5DF07A9F108F03E
:103FA00054C0CB3FDC4509F0A7C08091080340C056
:103FB000C230EDE5DE0709F489C058F4C1158DE57E
:103FC000D80709F45AC008F069C0809108038260DC
:103FD0002FC0C236EDE5DE0709F47CC0C63AFDE528
:103FE000DF0709F481C0C330DD4509F085C080E0FA
:103FF0006EC08091070382607DC08091070316C068
:1040000080910703886076C08091080382604FC06A
:104010008091070380626EC08091070380646AC04C
:104020000E94890980910703806864C0846062C02F
:1040300081603DC0809107038E7F5CC08091070343
:104040008D7F58C08091070316C08091080318C067
:10405000809108038D7F2BC0809107038F7E4AC01B
:10406000809107038F7D46C0809107038F7B42C0FC
:1040700080910703877F8B7F3DC0809108038D7FF0
:104080008E7F15C08091070382FB222720F991E0E3
:10409000922790FB82F990FB83F92CC08091080352
:1040A000982F909591708E7F892B90FB81F980934A
:1040B000080322C00E9489098091070387FB2227F9
:1040C00020F991E0922790FB87F914C081E00E94CB
:1040D000CE1012C08091070384FB222720F991E0C3
:1040E000922790FB84F906C080910703982F909542
:1040F00090FB80F980930703809107039091080358
:104100000E9448100E94890980E001C081E0DF918F
:10411000CF910895CF93DF9386319C4541F5EB0114
:104120000E94040F982F8A8120910201309103018F
:10413000882379F09A7A81E009F480E08093D602AE
:10414000911102C069E201C065E3C9010E948022A9
:104150000AC08091D602811102C069E201C065E304
:10416000C9010E948B220E94550F80E001C081E0AE
:10417000DF91CF9108950F931F93CF93DF93C42FB7
:10418000D22FFC0182818823C9F04093D9020E947A
:1041900044239093D8028093D70280E28C0F88301A
:1041A00008F057C0C77081E001C0880FCA95EAF7D0
:1041B000DF91CF911F910F910C94B4068091D90299
:1041C000481330C08091D7029091D8020E945C239E
:1041D000883C910538F510E21D0FCD17B9F080E24B
:1041E0008C0F883040F4C77081E001C0880FCA95F9
:1041F000EAF70E94BB06183028F581E09D2F9770E2
:1042000001C0880F9A95EAF70E94B406802F0E9499
:10421000AB061830F0F4D77081E001C0880FDA9552
:10422000EAF70AC080E28C0F883098F4C77081E00A
:1042300001C0880FCA95EAF7DF91CF911F910F91C6
:104240000C94BB06802FDF91CF911F910F910C949E
:10425000AB06DF91CF911F910F9108950F939C01B1
:10426000CB01243F4CE5340731F188F4293DFCE5CE
:104270003F07D9F02A3D4CE5340779F1283D3C450C
:10428000A9F506E221EE41EE68ED7CE52BC0263F64
:10429000FCE53F07E1F0A8F0273F3C4539F507E290
:1042A00025EE46EE67EF7CE51DC007E225EE45EE04
:1042B00069ED7CE517C006E221EE40EE64EF7CE597
:1042C00011C007E225EE44EE65EF7CE50BC006E287
:1042D00021EE42EE66EF7CE505C008E221E045EE06
:1042E0006AED7CE50E94BB2080E008C0FC01828171
:1042F000882319F01092D90201C081E00F9108952E
:104300009093C9018093C80108959093DF02809330
:10431000DE020895E091DE02F091DF02309721F095
:104320000190F081E02D099480E00895E091DE0293
:10433000F091DF02309799F020912B01222359F060
:104340002091070327FF07C0DC012C9111962C93C5
:10435000119726E02C930280F381E02D09940895B3
:10436000E091DE02F091DF02309739F022E0DC01CB
:104370002C930480F581E02D099408952091DC02AE
:104380003091DD022817390771F09093DD02809398
:10439000DC02E091DE02F091DF02309721F006802E
:1043A000F781E02D099408952091DA023091DB0223
:1043B0002817390771F09093DB028093DA02E091BD
:1043C000DE02F091DF02309721F00084F185E02DCC
:1043D00009940895FC01329680912B01882331F0D5
:1043E0008091070387FF02C09EE101C096E080E054
:1043F000915028F021912223D9F38F5FF9CF0895AE
:10440000662351F120912B012223E9F0209107032B
:1044100027FF19C0462F4695469546954E31E0F444
:10442000677021E030E002C0220F331F6A95E2F787
:10443000FC01E40FF11D828190E02823392381E003
:10444000232B69F409C0FC0132960896219162176A
:1044500029F0E817F907D1F780E0089581E0089581
:104460009C01FC0132969FEF80E04191461789F054
:104470009F3F19F4411101C0982F8F5F8630A9F733
:104480009F3F39F0F901E90FF11D97FDFA9562831D
:10449000089508959C012A5F3F4FFC014281461315
:1044A00001C01282019682179307B9F70895262F4B
:1044B0002695269526952E3168F4FC01E20FF11D14
:1044C000677021E030E001C0220F6A95EAF782812F
:1044D000282B22830895262F2695269526952E3162
:1044E00070F4FC01E20FF11D677021E030E001C0C3
:1044F000220F6A95EAF72095828128232283089566
:1045000020912B01222329F02091070327FD0C94F1
:1045100057220C94302220912B01222329F0209144
:10452000070327FD0C946B220C944A2220912B0147
:10453000FC013296222331F08091070387FF02C0ED
:104540008EE101C086E0DF011D928A95E9F70895AA
:1045500008950C94A82283E08093E0020C94A92291
:10456000811102C081E001C082E08093E0020C94DE
:10457000A9220C94B02281E08093E0020C94A9223D
:104580000C94BB2208950C94C2220C94C3220C9468
:10459000C2220C94C2220C94C222CF930E94C92240
:1045A0000E94D2140E94C722C0E08C2F0E94FC13EC
:1045B000892B29F4CF5FCB30C1F780E001C081E0C7
:1045C000CF91089508951F920F920FB60F92112464
:1045D0008F939F93AF93BF938091E102811113C09A
:1045E0008091430390914403A0914503B091460309
:1045F0004196A11DB11D8093430390934403A09362
:104600004503B0934603BF91AF919F918F910F9057
:104610000FBE0F901F90189580914B03843031F19D
:104620000E941D041092E10220E488E190E00FB6A0
:10463000F894A895809360000FBE2093600083B724
:10464000817F846083BF83B7816083BF78948895BE
:1046500083B78E7F83BF0FB6F894A89580916000D2
:10466000886180936000109260000FBE08950E94E0
:1046700089090C94210482E084BD93E095BD9AEFF2
:1046800097BD80936E0008952FB7F89480914303EF
:1046900090914403A0914503B09146032FBF089524
:1046A0002FB7F894609143037091440380914503C0
:1046B000909146032FBF08959C014FB7F8948091C5
:1046C000430390914403A0914503B09146034FBF2B
:1046D000821B930B089578941F920F920FB60F923E
:1046E00011248F939F93AF93BF9380914303909135
:1046F0004403A0914503B09146030196A11DB11D4D
:104700008093430390934403A0934503B0934603DF
:10471000BF91AF919F918F910F900FBE0F901F90FF
:10472000189581E08093E00080E28093D800109299
:10473000C9008FE19EE40197F1F700C0000087E017
:1047400090EBDC018093540390935503A0935603A0
:10475000B09357039CE088E10FB6F894A895809336
:1047600060000FBE90936000FFCF80910503089515
:10477000089522E02093E9002FEF3091E8002150C6
:1047800035FD06C035ED3A95F1F700002111F5CF62
:104790002091E80025FF0BC040E050E066E070E0AB
:1047A0000E94F8258091E8008E778093E8000895B4
:1047B000CF93DF9320912B01222339F0209107031F
:1047C00027FF03C060E222E002C068E021E02093FE
:1047D000E9002FEF3091E800215035FD06C035ED9E
:1047E0003A95F1F700002111F5CF2091E80025FF5F
:1047F0001DC0EC0180912B01811105C040E050E00B
:1048000068E070E003C070E040E050E0CE010E943C
:10481000F8258091E8008E778093E80080E2FE0121
:10482000A5EEB2E001900D928A95E1F7DF91CF916C
:1048300008958093E2027093E4026093E302809112
:104840004B03843001F582E08093E9008FEF909173
:10485000E800815095FD06C095ED9A95F1F70000AE
:104860008111F5CF8091E80085FF0DC040E050E058
:1048700063E070E082EE92E00E94F8258091E8000B
:104880008E778093E8000895BC0184E00C9419248D
:10489000BC0183E00C94192480914A03811109C062
:1048A0000E9489270E94E6278091E200846080931D
:1048B000E200089510924A0308950C94C02260917A
:1048C000470381E0611101C080E00C94AB2290911C
:1048D0004B0381E0943009F080E0609147030C9431
:1048E000B02242E061EC81E00E94022742E261ECEA
:1048F00082E00E94022790914B0381E0943009F0FE
:1049000080E0609147030C94B92280914D0383307D
:1049100009F461C030F4813071F0823009F49AC03A
:1049200008958A3009F486C08B3009F46CC0893050
:1049300009F0A8C020C080914C03813A09F0A2C0C0
:104940008091E800877F8093E800809150039091E8
:104950005103892B21F460E285EE92E003C060E010
:1049600080E090E070E00E9443268091E8008B7721
:104970008093E800089580914C03813209F082C051
:104980008091500390915103029708F07BC0809171
:10499000E800877F8093E8008091E80082FD05C0F1
:1049A00080914B038111F8CF6DC02091F30080916D
:1049B000F20090E0922B029731F48091F100813067
:1049C00011F0863021F48091F100809305038091ED
:1049D000E8008B7753C080914C03813A09F052C0B4
:1049E0008091500390915103892B09F04BC0809125
:1049F000E800877F8093E8008091E80080FFFCCF8B
:104A000080912B0136C080914C038132D9F5809181
:104A1000500390915103892BA9F58091E800877F7D
:104A20008093E8000E94372780914E0380932B01EA
:104A30000C94890980914C03813221F58091E80022
:104A4000877F8093E8000E94372780914F038093EF
:104A50000603089580914C03813AA1F48091E80007
:104A6000877F8093E8008091E80080FFFCCF8091F1
:104A700006038093F1008091E8008E778093E80030
:104A80000C943727089584B7877F84BF0FB6F894B6
:104A9000A89580916000886180936000109260000A
:104AA0000FBE90E080E80FB6F89480936100909379
:104AB00061000FBE0C94BB220E9489270E94E6274A
:104AC000E2EEF0E080818460808378940C947B2A0D
:104AD0008FE191E00C94852180914B038530A9F4FE
:104AE00080914B03853079F40E940C238091490317
:104AF0008823B1F30E94CD22882391F30E94E225FE
:104B00000E948909EDCF0C943723089508950C94E1
:104B10008925292F332723303105C9F060F421304E
:104B2000310581F02230310509F044C08BE390E07B
:104B300022EC34E043C021323105E1F0223231056C
:104B400049F138C082E190E02DEF34E037C0992779
:104B50008130910549F028F0029761F5E8EAF4E028
:104B600005C0EEEBF4E002C0E2EBF4E0849190E0EB
:104B70009F0124C06115710541F061307105D1F4C8
:104B800089E090E02DEE34E019C089E090E024ED5A
:104B900034E014C06115710541F06130710551F4C4
:104BA0008CEB90E02FE035E009C080E490E02BEC46
:104BB00035E004C080E090E020E030E0FA0131838D
:104BC0002083089580E189BD82E189BD09B400FE9A
:104BD000FDCF8091D8008F7D8093D8008091E00038
:104BE00082608093E0008091E00081FDFCCF089519
:104BF000CF92DF92EF92FF920F931F93CF93DF93A9
:104C0000EC018B017A010E945627811133C0E11417
:104C1000F10439F0F70180819181081B190BC80F4D
:104C2000D91FC12CD12C0115110519F18091E80073
:104C300085FD16C08091E8008E778093E800E1142E
:104C4000F10449F0F70180819181C80ED91ED1820B
:104C5000C08285E00FC00E945627882321F30AC036
:104C600089918093F10001501109FFEFCF1ADF0AFB
:104C7000DACF80E0DF91CF911F910F91FF90EF90FD
:104C8000DF90CF900895209152033091530326175F
:104C9000370748F06115710539F42091E8002E7747
:104CA0002093E80001C0B901FC0120E06115710505
:104CB00079F180914B038823F1F18530F1F18091F6
:104CC000E80083FD3CC08091E80082FD2EC0809109
:104CD000E80080FFEBCF2091F3008091F20090E09C
:104CE000922B6115710551F08830910538F42191AE
:104CF0002093F100615071090196F3CF21E00897EC
:104D000009F020E08091E8008E778093E800CECF14
:104D10002111CFCF0AC080914B03882361F08530E9
:104D200061F08091E80083FD0AC08091E80082FF75
:104D3000F2CF80E0089582E0089583E0089581E055
:104D4000089520915203309153032617370748F0F6
:104D50006115710539F42091E8002E772093E80061
:104D600001C0B901FC0120E06115710591F180914C
:104D70004B03882309F440C0853009F43FC080917B
:104D8000E80083FD3DC08091E80082FD2FC0809146
:104D9000E80080FFE9CF2091F3008091F20090E0DD
:104DA000922B6115710559F08830910540F42491DA
:104DB0002093F1003196615071090196F2CF21E004
:104DC000089709F020E08091E8008E778093E80052
:104DD000CBCF2111CCCF0AC080914B03882361F047
:104DE000853061F08091E80083FD0AC08091E80081
:104DF00082FFF2CF80E0089582E0089583E0089575
:104E000081E00895982F973068F59093E9009817FE
:104E100039F07091EC002091ED005091F00003C04A
:104E2000242F762F50E021FD02C09F5FECCF309100
:104E3000EB003E7F3093EB003091ED003D7F3093EF
:104E4000ED003091EB0031603093EB007093EC009B
:104E50002093ED005093F0002091EE0027FDE5CF68
:104E600080E008958F708093E90081E0089580913B
:104E70004C0387FF11C08091E80082FD05C080913E
:104E80004B038111F8CF11C08091E8008B770BC0E4
:104E900080914B03882349F08091E80080FFF8CF90
:104EA0008091E8008E778093E80008952091E400D7
:104EB0003091E50095E64091EC00842F817040FF31
:104EC00023C08091E80080FD1DC080914B038823A2
:104ED00099F0853099F08091EB0085FD11C04091EB
:104EE000E4005091E5002417350729F3915011F0A3
:104EF0009A01E1CF84E0089582E0089583E0089567
:104F000081E0089580E008954091E80042FFDDCF00
:104F100008950E94F7270E94FF27E0EEF0E08081CD
:104F200081608083E8EDF0E080818F77808319BC19
:104F3000A7EDB0E08C918E7F8C9380818F7E8083F3
:104F400010924A0308950F931F93CF93DF930E940B
:104F5000F7270E94FF27C8EDD0E088818F778883EC
:104F600088818068888388818F7D888319BC1092AE
:104F70004B0310924703109249031092480300EE2E
:104F800010E0F80180818B7F808388818160888335
:104F900042E060E080E00E940227E1EEF0E08081E4
:104FA0008E7F8083E2EEF0E080818160808380816B
:104FB00088608083F80180818E7F80838881806112
:104FC0008883DF91CF911F910F910895E8EDF0E074
:104FD00080818F7E8083E7EDF0E080818160808337
:104FE00084E082BF81E080934A030C94A327E8ED1C
:104FF000F0E080818E7F80831092E200089510920D
:10500000DA001092E10008951F920F920FB60F92EE
:1050100011242F933F934F935F936F937F938F93BD
:105020009F93AF93BF93EF93FF938091E10082FF33
:105030000BC08091E20082FF07C08091E1008B7F6E
:105040008093E1000E947A2A8091DA0080FF1FC0DD
:105050008091D80080FF1BC08091DA008E7F809302
:10506000DA008091D90080FF0DC080E189BD82E126
:1050700089BD09B400FEFDCF81E080934B030E94FF
:105080004C2405C019BC10924B030E945A248091F5
:10509000E10080FF19C08091E20080FF15C080917F
:1050A000E2008E7F8093E2008091E2008061809335
:1050B000E2008091D80080628093D80019BC85E01E
:1050C00080934B030E945F248091E10084FF30C0F5
:1050D0008091E20084FF2CC080E189BD82E189BD1E
:1050E00009B400FEFDCF8091D8008F7D8093D80059
:1050F0008091E1008F7E8093E1008091E2008F7EBD
:105100008093E2008091E20081608093E2008091D0
:105110004703882311F084E007C08091E30087FDF6
:1051200002C081E001C083E080934B030E946724AA
:105130008091E10083FF29C08091E20083FF25C0B8
:105140008091E100877F8093E10082E080934B03B0
:10515000109247038091E1008E7F8093E10080915F
:10516000E2008E7F8093E2008091E2008061809374
:10517000E20042E060E080E00E9402278091F000BF
:1051800088608093F0000E945D24FF91EF91BF91B1
:10519000AF919F918F917F916F915F914F913F91CF
:1051A0002F910F900FBE0F901F9018951F920F9286
:1051B0000FB60F9211242F933F934F935F936F93EA
:1051C0007F938F939F93AF93BF93CF93DF93EF938F
:1051D000FF93C091E900CF708091EC00D82FD1707F
:1051E00080FDD0E81092E9008091F000877F8093E5
:1051F000F00078940E941A291092E9008091F00042
:1052000088608093F000CD2BCF70C093E900FF91B0
:10521000EF91DF91CF91BF91AF919F918F917F914E
:105220006F915F914F913F912F910F900FBE0F9013
:105230001F9018951F93CF93DF93CDB7DEB7AA9732
:105240000FB6F894DEBF0FBECDBFECE4F3E0809163
:10525000F100819323E0E435F207C9F70E94852429
:105260008091E80083FF2EC180914C0390914D0303
:10527000492F50E04A30510508F024C1FA01EE5997
:10528000FF4F0C94EE2A803821F0823809F01AC1C1
:1052900008C08091480390914903992389F0826066
:1052A0000FC0809150038F70873008F00BC180933E
:1052B000E9008091EB0085FB882780F91092E900D6
:1052C0009091E800977F9093E8008093F10010920E
:1052D000F100D1C0282F2D7F09F0F4C0882319F0E8
:1052E000823061F0EFC080914E03813009F0EAC056
:1052F000933009F080E0809349032EC080914E03E3
:1053000081112AC0809150038F702FEF280F263013
:1053100008F0D8C08093E9002091EB0020FF1CC06A
:10532000933021F48091EB00806214C09091EB00E7
:1053300090619093EB0021E030E0A90102C0440F9E
:10534000551F8A95E2F74093EA001092EA00809197
:10535000EB0088608093EB001092E9008091E800F8
:10536000877F8093E8000E943727ACC08111AAC0D4
:1053700010914E031F778091E3008078812B8093FA
:10538000E3008091E800877F8093E8000E94372740
:105390008091E80080FFFCCF8091E30080688093DB
:1053A000E300111102C082E001C083E080934B034F
:1053B00089C08058823008F085C080914E0390915A
:1053C0004F038C3D53E0950779F583E08A838AE2A9
:1053D00089834FB7F894DE01139620E03EE051E256
:1053E000E32FF0E050935700E49120FF03C0E295D3
:1053F000EF703F5FEF708E2F90E0EA3010F0C796AD
:1054000001C0C0968D939D932F5F243149F74FBF04
:105410008091E800877F8093E8006AE270E0CE0127
:1054200001960E94432616C060915003709151036B
:10543000AE014F5F5F4F0E948725BC01892B09F4A5
:1054400041C09091E800977F9093E80089819A810C
:105450000E94A1268091E8008B778093E80032C0FB
:10546000803881F58091E800877F8093E800809103
:1054700047038093F1008091E8008E7772CF81110D
:1054800021C080914E0390914F0399270297D4F445
:105490008091E800877F8093E80080914E0380939D
:1054A00047030E94372780914703811106C08091EE
:1054B000E30087FD02C081E001C084E080934B03DC
:1054C0000E9471248091E80083FF0AC08091E80067
:1054D000877F8093E8008091EB0080628093EB00EF
:1054E000AA960FB6F894DEBF0FBECDBFDF91CF9165
:1054F0001F9108950895CF9380914B038823A1F0C5
:10550000C091E900CF709091EC00892F817090FDDF
:1055100080E8C82B1092E9008091E80083FD0E948A
:105520001A29CF70C093E900CF91089587FB082E08
:10553000062687FD819567FD61950E94252B0EF457
:10554000919507FC81950895AA1BBB1B51E107C0EB
:10555000AA1FBB1FA617B70710F0A61BB70B881F03
:10556000991F5A95A9F780959095BC01CD01089592
:1055700097FB072E16F4009407D077FD09D00E9400
:10558000A42A07FC05D03EF4909581959F4F08957D
:10559000709561957F4F0895A1E21A2EAA1BBB1B3F
:1055A000FD010DC0AA1FBB1FEE1FFF1FA217B307EF
:1055B000E407F50720F0A21BB30BE40BF50B661F05
:1055C000771F881F991F1A9469F7609570958095C9
:1055D00090959B01AC01BD01CF010895EE0FFF1F17
:1055E0000590F491E02D09940E94FC2A332312F4D3
:1055F0008A1B9B0B0C940D2BA29FB001B39FC00183
:10560000A39F700D811D1124911DB29F700D811DEE
:105610001124911D08950E94FC2AB7FF0895821B52
:10562000930B08950E94FC2AA59F900DB49F900DA6
:10563000A49F800D911D11240895B7FF0C94122B87
:105640000E94122B821B930B0895991B79E004C0D2
:10565000991F961708F0961B881F7A95C9F78095B1
:105660000895FC014150504030F001900616D1F7EA
:105670003197CF010895882799270895FB01DC0110
:1056800004C08D910190801921F441505040C8F719
:10569000881B990B0895F999FECF92BD81BDF89AA8
:1056A000992780B50895A6E1B0E044E050E00C945D
:1056B000852BA8E1B0E042E050E00C94852B262F2A
:1056C000F999FECF92BD81BDF89A019700B40216F8
:1056D00039F01FBA20BD0FB6F894FA9AF99A0FBEA6
:1056E00008950396272F0E94602B0E945F2B252F81
:1056F0000E94602B242F0C94602B0196272F0E9470
:10570000602B0C945F2BDC01CB01FC01F999FECFDF
:1057100006C0F2BDE1BDF89A319600B40D92415039
:0A5720005040B8F70895F894FFCF49
:10572A00C8007902280850011E0A1401010102006A
:10573A000300030301191A1B1C1D1E1F202122B579
:10574A0023D823B92348244424B82301E200E900DA
:10575A00EA00B500B600B700CD008301CC008A018B
:10576A009201940121022302240225022602270221
:10577A002A02B300B4006F007000818283E200E95C
:10578A0000EA00B500B600B700CD008301CC008A5C
:10579A0001920194012102230224022502260227F2
:1057AA00022A02B300B4006F007000818283F0F114
:1057BA00F5F6F736353496309733379193949592B8
:1057CA00903231000102020202060606090909099D
:1057DA0009090F0F0F0F0F0F151515181919191998
:0857EA001919191919192324DA
:00000001FF
