:100000000C9444040C947C040C947C040C947C04A8
:100010000C947C040C947C040C947C040C947C0460
:100020000C947C040C947C040C94D3180C940F183E
:100030000C947D280C947C040C947C040C947C041B
:100040000C947C040C947C040C947C040C947C0430
:100050000C947C040C9430280C947C040C947C0448
:100060000C947C040C947C040C947C040C947C0410
:100070000C947C040C947C040C947C040C947C0400
:100080000C947C040C947C040C947C040C947C04F0
:100090000C947C040C947C040C947C040C947C04E0
:1000A0000C947C040C947C040C947C049E0AB40A8A
:1000B000BB0AEF0BEF0BF30A040B170B580B5D0B8E
:1000C000EF0BEF0BEF0B650B441144117711771118
:1000D0000A1228124E134E133312A712B812B81276
:1000E00015163C16F1173C16F1178816AB16F117CA
:1000F000AC17BC1700047F3F1F64321464321478BD
:100100003C1E1E140A05FD377A585A000004E6D634
:10011000B4460200210116000000742FE5A3E0049C
:10012000EE01925D003D888986D3DC0AE842C32453
:10013000925842588FD8E75CA0F301488A3C4E9F02
:10014000EE7B2208D34DBB24F2503B0C5FDBCBAEE1
:1001500041C40B2D3EB471A6B25234713425B3950F
:10016000753EDED30729E4D9EE02A055AC8D5AEBDB
:100170002B840D47EF161B2AC5260D4C55392E43EF
:10018000CED68BEB09BF36BBCF96D32A90251DEA7E
:10019000E00A6C52A2E31FC3DD4CCA0341E124A272
:1001A000C12740A350CC22C5A01EEFE6B4AE9042BA
:1001B000C5848FE4CCD703278610BC2007F9AE8511
:1001C000852CFE875EEB57FD22B244C9121EB81F74
:1001D0000B9642068C32E84C768A696F3DDBB8ACF0
:1001E000742735558CE01BC2A9980AF735DDFC8BC6
:1001F0007689FEE5845CA6BC7A7C93CC46A89517EC
:100200002B4F87EB176ED3E5EBEBC231D32B31A924
:10021000DE1409DFF14874DBD11A3AB306081ED99F
:100220004BC4A96DE69A88F6DA2A5513F173F625C0
:1002300018D8BAAE09E0207A094E909D40788B45D7
:100240003BA1AAD8EEE7623F5CE6EA7FBAA0C98C80
:10025000EC8E8F0C0BD6346D0FBFA2992CB82B8D62
:100260003A8C28DBC0A76BCE09EB83F0FBADC30D46
:100270003AA3106B06F89EA15524C410507178095A
:10028000AF7FE5A8CE91165C65314AF830E5654D43
:10029000BCBA4A34B28FDD1ECBF06DD05578691EE2
:1002A0005F54BBDB443D7A5242842C73EA021DAAA0
:1002B000B1A8A27E605FE30000002D2B8D7695C073
:1002C000BFDB0001AE03EF09000072B42E26B1C4FB
:1002D00067FB020000000004595A68747470733A96
:1002E0002F2F716D6B2E666D2F0A00514D4B2069BB
:1002F00073207468652062657374207468696E6722
:100300002065766572210005010902A101850209B7
:1003100001A100050919012905150025019505759B
:10032000018102950175038101050109300931152B
:1003300081257F95027508810609381581257F95ED
:100340000175088106050C0A38021581257F950183
:1003500075088106C0C005010980A1018503190146
:100360002AB700150126B700950175108100C00558
:100370000C0901A101850419012AA002150126A07A
:1003800002950175108100C005010906A1018506CD
:10039000050719E029E71500250195087501810277
:1003A0000507190029EF1500250195F07501810257
:1003B0000508190129059505750191029501750337
:1003C0009101C00660FF0961A1010962150026FFC5
:1003D000009520750881020963150026FF0095200D
:1003E00075089102C005010906A101050719E02958
:1003F000E7150025019508750181029501750881B1
:10040000010507190029FF150026FF00950675084C
:1004100081000508190129059505750191029501CD
:1004200075039101C009025B00030100A0FA0904F1
:100430000000010301010009211101000122400017
:100440000705810308000109040100020300000000
:100450000921110100012222000705820320000169
:100460000705030320000109040200010300000046
:1004700009211101000122BC0007058403200001AD
:100480001201000200000008091209920100010295
:1004900003011C037600690061006C003A006600ED
:1004A0003600340063003200620033006300000055
:1004B00034034100700070006C00650020004500AE
:1004C0007800740065006E00640065006400200020
:1004D0004B006500790062006F00610072006400EB
:1004E0002000320000000A0341004C00500053007D
:1004F00000000403090400010101010101010101DF
:1005000002020202020202020203030303030303C4
:100510000304040404040404050505050506060691
:100520000606070707070708080808090909090A4E
:100530000A0A0B0B0B0C0C0C0D0D0D0E0E0E0F0FF3
:100540000F10101111111212131314141515161681
:100550001717181819191A1A1B1B1C1D1D1E1E1FF0
:100560002020212222232424252626272829292A3F
:100570002B2C2D2D2E2F3031323233343536373867
:10058000393A3B3C3D3E3F40414243444546474863
:10059000494A4C4D4E4F50515354555658595A5B39
:1005A0005D5E5F616264656668696B6C6D6F7072D9
:1005B000737577787A7B7D7E8082838587888A8C45
:1005C0008E8F91939596989A9C9EA0A2A3A5A7A979
:1005D000ABADAFB1B3B5B7BABCBEC0C2C4C6C9CB70
:1005E000CDCFD1D4D6D8DBDDDFE2E4E7E9EBEEF026
:1005F000F3F5F8FAFDFFFFAA7F554029003A003CC9
:10060000003E00400042004400460048002E0235F3
:10061000001F0021002300250027002E004A005360
:100620000038002B001A0015001C000C00130030CD
:10063000004D005F0061003900160009000B000E3C
:10064000003300310052005C005700E1001B00192C
:1006500000110036003800280051005A005800E010
:1006600000E2002C001000E600E700E4004F006309
:1006700000A900E300060005000D003700E500506A
:100680000062005B002E021D0007000A0018000F28
:100690000034004C0059005E00AA00040008001756
:1006A00000240012002F0049004E005D0056001487
:1006B00000200022002E0226002D002A004B0060A0
:1006C0000055001E003B003D003F00410043004537
:1006D00000470067000F082223252628292A2C2DF1
:1006E0002F3032333536383A3B3D3E404243454762
:1006F000494A4C4E5051535557595A5C5E6062649A
:100700006668696B6D6F71737577797B7D7F8183A7
:100710008587898A8C8E90929496989A9C9E9FA1A8
:10072000A3A5A7A8AAACAEAFB1B3B4B6B8B9BBBCC9
:10073000BEBFC1C2C3C5C6C7C9CACBCCCDCED0D13E
:10074000D2D2D3D4D5D6D7D7D8D9D9DADADBDBDB36
:10075000DCDCDCDCDCDDDDDDDDDCDCDCDCDCDBDBD7
:10076000DBDADAD9D9D8D7D7D6D5D4D3D2D2D1D02B
:10077000CECDCCCBCAC9C7C6C5C3C2C1BFBEBCBB28
:10078000B9B8B6B4B3B1AFAEACAAA8A7A5A3A19FA0
:100790009E9C9A98969492908E8C8A898785838164
:1007A0007F7D7B79777573716F6D6B696866646245
:1007B000605E5C5A5957555351504E4C4A49474513
:1007C0004342403E3D3B3A3836353332302F2D2CB4
:1007D0002A2928262523220000000000000000000E
:1007E0000000000000000000000000000000000009
:1007F00000000000000000000000007E0F00D4FF99
:10080000FFFFC70000007800000000000000002A81
:100810002B28000000000000000000000000000085
:10082000000029000000002C1E3420212224342640
:1008300027252E362D3738271E1F20212223242539
:10084000263333362E37381F0405060708090A0BEE
:100850000C0D0E0F101112131415161718191A1B60
:100860001C1D2F3130232D350405060708090A0BFE
:100870000C0D0E0F101112131415161718191A1B40
:100880001C1D2F3130354C0011241FBECFEFDAE094
:10089000DEBFCDBF04B603FE18C08091B4049091B2
:1008A000B504A091B604B091B7048730904BA7402F
:1008B000B04B59F41092B4041092B5041092B604DF
:1008C0001092B704E0E0F8E3099511E0A0E0B1E090
:1008D000EAE3FCE602C005900D92A03AB107D9F711
:1008E00024E0A0EAB1E001C01D92A43BB207E1F709
:1008F0000E947E040C941B360C940000CF93DF936F
:10090000CDB7DEB7E4970FB6F894DEBF0FBECDBF0C
:1009100084B7877F84BF0FB6F894A8958091600054
:10092000886180936000109260000FBE90E080E8C4
:100930000FB6F89480936100909361000FBE85B765
:10094000806885BF85B7806885BF8AEE92E2909304
:10095000A1018093A0010E94B92F0E94282F0E941C
:1009600053180E9472188091E20084608093E20024
:10097000789480911C028823A1F01091E9001F70E7
:100980009091EC00892F817090FD80E8182B1092D7
:10099000E9008091E80083FD0E942D151F701093DF
:1009A000E90082E084BD93E095BD9AEF97BD809306
:1009B0006E000E94C730811102C00E94B83005E26B
:1009C00011E0D8018D918D018F3F11F00E942F23EE
:1009D000B1E000331B07A9F700E311E0F8018191B2
:1009E0008F018F3F11F00E942F23F1E00A331F0780
:1009F000A9F786E1E5EDF1E0DF01282F1D922A95A8
:100A0000E9F7E2EAF1E0DF011D928A95E9F70E9439
:100A1000B625811102C00E94C12582E090E00E94AB
:100A200008358093B9010E94A5259093C403809353
:100A3000C3030E944623EFE3FCE93197F1F700C0BE
:100A400000000E9446238091D50180FF08C06FEF0F
:100A50007FEF80E090E00E943A350E940C2883E00E
:100A600090E00E9408350E94FA1C8091B801811123
:100A700033C00E94B625811104C00E94C1250E9486
:100A80009F1F88E090E00E9410356093D40370931C
:100A9000D5038093D6039093D7036E7F71F40E94A1
:100AA0009F1F88E090E00E9410356093D4037093FC
:100AB000D5038093D6039093D7030E94581F1092BA
:100AC0005C028091D40380FF04C060E086950E94A0
:100AD0003C2181E08093B80180E091E09093BB03DA
:100AE0008093BA03EBEE2E2EE1E03E2E8E010F5FD7
:100AF0001F4F80911C02853009F047C060E1E62E4F
:100B000072E1F72E80911C02853009F03AC0809185
:100B10001C02843021F11092BE0328E130E040E451
:100B20000FB6F894A895209360000FBE4093600024
:100B300083B7817F846083BF83B7816083BF7894EC
:100B4000889583B78E7F83BF0FB6F894A895809160
:100B50006000886180936000109260000FBE8091F9
:100B60001202882309F4CECF0E944623E5EDF1E07E
:100B700081919191892B09F036C62E163F06C1F757
:100B8000C1CF0E94FE1C0E942F290E944623811182
:100B90000E94652855EDA52E51E0B52EAAEBB1E0D7
:100BA000F501E12CF12C7E2D219131918D919D91BA
:100BB00082279327009779F160E0CC24C394D12C4D
:100BC000AC014C215D21452B09F16BA77CA72C21A1
:100BD0003D2181E0232B09F480E08DA70E9471283C
:100BE0008160782F9FA78EA74BA55CA56DA58FA5CB
:100BF0000E944F32F701EE0FFF1FE654FE4F808137
:100C00009181C826D926D182C0821CC06F5FCC0CCE
:100C1000DD1C6A30A9F68FEFE81AF80A9BE0E916A6
:100C2000F10409F68FEF88AB89AB1AAA0E947128EC
:100C30008160782F9CAB8BAB48A959A96AA98CA974
:100C40000E944F328091B1039091B203892B09F435
:100C50003EC04091A6035091A7036091A8037091F4
:100C6000A9032FB7F8948091BF039091C003A0917E
:100C7000C103B091C2032FBF841B950BA60BB70B0A
:100C80004091A2035091A3036091A4037091A50326
:100C900084179507A607B707D0F08091B10390910C
:100CA000B2030E94D6341092B2031092B103109294
:100CB000A6031092A7031092A8031092A903109202
:100CC000A2031092A3031092A4031092A503809193
:100CD0001901882341F18091A0039091A10300970D
:100CE00011F10E9456282091F9023091FA0228173A
:100CF0003907C8F490919E0380919F03981759F08B
:100D00000E943D2B1092FA021092F9021092A10358
:100D10001092A00308C00E94BD2A1092A103109255
:100D2000A0030E941E2B80915C02882309F498C0C6
:100D300080915B02E091D403E695E81BE0935702B3
:100D4000823059F4F0E0EE5FFE4FE491EE2EF12C8C
:100D5000F0EBCF2EFEE2DF2E5EC0863059F4F0E0DD
:100D6000E150FF4FE491EE2EF12CE0EACE2EEEE2C0
:100D7000DE2E51C0893061F4E695F0E0E450FF4F7B
:100D8000E491EE2EF12C76E3C72E7EE2D72E43C0FF
:100D90008F3061F4E695F0E0E750FF4FE491EE2EDE
:100DA000F12C69ECC62E6DE2D62E35C0853159F492
:100DB000F0E0EA50FF4FE491EE2EF12C52E7C52E01
:100DC0005DE2D52E28C08831B1F0833249F4E4EFDA
:100DD000F0E0E590F49040E6C42E4EE2D42E1BC025
:100DE000843289F020EDE22E27E0F22E3EEAC32E77
:100DF0003CE2D32E10C088E2E82EF12C98EEC92EEA
:100E00009CE2D92E08C0A4EFEA2EFF24F394BFEA97
:100E1000CB2EBCE2DB2E80915802882361F0109229
:100E200058020E94712890935602809355021092A6
:100E30005A02109259020E947128E0915502F091D5
:100E400056028E1B9F0B8F3F9F4750F4EE0EFF1EE6
:100E5000F0925602E092550285E592E0F60109957E
:100E600086E0EFE4F2E0D80101900D928A95E1F777
:100E7000C0905102D0905202E0905302F090540280
:100E80001092510210925202109253021092540288
:100E9000C11003C0DD2009F451C080914D02909132
:100EA0004E020E9456289C0190914902992309F410
:100EB000B9C42531310508F441C09F3F19F09F5F47
:100EC00090934902CC2061F00E9462221C1414F419
:100ED00091E001C09FEF899F802D112480935102E2
:100EE000DD2061F00E9462221D1414F491E001C023
:100EF0009FEF899F802D11248093520230915102DF
:100F00003323E1F0209152022223C1F045EB340358
:100F1000C0011124992319F09093510203C081E07C
:100F20008093510235EB2303C0011124992319F05A
:100F30009093520203C081E080935202E11003C0FB
:100F4000FF2009F451C080914B0290914C020E9405
:100F500056289C0190914802992309F468C42135D0
:100F6000310508F441C09F3F19F09F5F90934802FC
:100F7000EE2061F00E9440221E1414F491E001C0A2
:100F80009FEF899F802D112480935302FF2061F0F1
:100F90000E9440221F1414F491E001C09FEF899F2A
:100FA000802D112480935402309153023323E1F0B9
:100FB000209154022223C1F045EB3403C0011124D7
:100FC000992319F09093530203C081E08093530258
:100FD00035EB2303C0011124992319F09093540297
:100FE00003C081E0809354028091510281110BC0B3
:100FF00080915202811107C080915302811103C078
:101000008091540281110E949121CB82DC82ED8279
:10101000FE8286E0F801AFE4B2E001900D928A957D
:10102000E1F70E942F299091D00189138093D0017C
:1010300080911C02843009F05CCD83E08093E9004C
:101040008091E80082FF55CD8091E80085FF21C0A6
:101050000E94AA1981111BC0F0E2EF2EF12C680149
:1010600009C08091F100D6018D936D01B1E0EB1ABA
:10107000F10869F08091E80085FDF3CF8091E800E8
:101080008B778093E8000E94AA19882399F391E056
:1010900001C090E08091E8008B778093E80099236D
:1010A00009F427CDE090F702F090F8028981E1146D
:1010B000F10461F08E3F09F092C38A81833008F415
:1010C00031C28550833008F08AC32CC28B3009F4BA
:1010D00013C288F5853009F47FC0B8F4823009F472
:1010E00046C030F4813009F078C31A8289E0DEC24C
:1010F000833009F464C0843009F06FC34C816B8184
:101100008A810E94FA2E9D838BC3873009F472C0B6
:1011100008F46DC0883009F4AFC0893009F05DC3B0
:101120006091D4037091D5038091D6039091D70339
:101130000E946B1F54C3803109F41FC160F48D30CD
:1011400009F4BDC008F4B9C08E3009F4BCC08F30BA
:1011500009F4E4C042C3823109F415C108F410C196
:10116000833109F43AC18E3F09F4DCC136C38A8168
:10117000823009F44EC3833051F0813009F02DC321
:101180000E9465289B838C837D836E8328C3809116
:10119000F3029091F402892B09F421C3F801CE01E6
:1011A0004796D5012C9111963C91B2E0AB0EB11C43
:1011B0003283238332968E179F0799F710C38A8153
:1011C000823009F00AC36B817C818D819E810E94EF
:1011D000B6350E94963003C32D813E8132272327E6
:1011E00032274C816B818A810E94C42EF8C20E94F2
:1011F000182CF5C28A818138B1F050F4803809F09A
:10120000EEC220E04B816091D6038091D50331C0BE
:10121000823859F1833809F0E2C220E04091D703C7
:101220006C818B8126C060E08B810E943C219B8178
:101230008091D403911111C08E7F8093D4031092BA
:101240005C02EFEFF0E722E0E150F0402040E1F7F0
:1012500000C000000E94011FC2C281608093D403BD
:1012600060E086950E943C21BAC28B818093D803AE
:10127000B6C20E945F20B3C28A81813899F030F4EF
:10128000803809F0ACC28091D70310C2823891F047
:10129000833809F0A4C28091D5038B838091D60353
:1012A0008C839DC28091D40380FF02C08695FEC1CD
:1012B00080E0FCC18091D803F9C180E162C081E087
:1012C0008A8381E8F3C1EA80FB80FE24EF24FE24B8
:1012D000AC80B12C3DE1A316B10408F080C26801D6
:1012E000C70181589D4F9601201B310B2A153B05E4
:1012F00008F075C241E8E41641E0F40630F40E94BB
:101300000835D60114968C9302C0F6011482FFEFC3
:10131000EF1AFF0A2FEFC21AD20AE2CF8091F3022E
:101320009091F402892B09F45AC2EA80FB80FE24D2
:10133000EF24FE24CC80D12C3DE1C316D10408F06B
:101340004EC25801C70181589D4F9501201B310B9A
:101350002C153D0508F043C241E8E41641E0F406CF
:1013600028F4D50114966C910E941C35BFEFEB1A3E
:10137000FB0AEFEFAE1ABE0AE5CF0E94EC2B2FC29C
:1013800082E08A832CC2EA80FB80FE24EF24FE24C4
:10139000AC80B12CFDE1AF16B10408F020C26801A9
:1013A000C70187969601201B310B2A153B0508F0D3
:1013B00016C228EBE21621E0F20630F40E9408354E
:1013C000D60114968C9302C0F6011482FFEFEF1A37
:1013D000FF0A2FEFC21AD20AE3CFEA80FB80FE2475
:1013E000EF24FE24AC80B12C3DE1A316B10408F03B
:1013F000F6C1370147E2640E711C88EBE81681E004
:10140000F80608F0ECC188EB91E08E199F098A1567
:101410009B0508F4E4C18091F3029091F402892BBA
:1014200011F0680160C0E0FE0FC0C70186960E94FF
:10143000083590E0982F88272D81822B81159C45B7
:1014400031F48FEF8D8303C0C12CD12C03C0CC2489
:10145000C394D12CC5018E0D9F1D450180FF1BC07B
:10146000B1E08B1A910855E0452E512C4C0E5D1EB3
:10147000480C591CC3018A0D9B1D0E940835F201BE
:10148000208130E0322F2227282B21153C4519F4EA
:101490008FEFD2018C93F801EC0DFD1D2FEFCF01E2
:1014A000801B910B8815990508F0BBCF848190E0D3
:1014B000982F88273581832B81159C4511F424832F
:1014C00025833296ECCFE8EBEE16E1E0FE0628F439
:1014D000D60114966C910E941C35BFEFEB1AFB0AE3
:1014E000EFEFCE1ADE0AC70187969601201B310B5B
:1014F0002A153B0540F373C18091F3029091F402E9
:10150000892B09F46CC1C8010E94091AFFEF21EE72
:1015100034E0F15020403040E1F700C000000E946C
:101520000C285DC1EA818E2F90E08E30910508F085
:1015300056C1FC01EA5AFF4F0C94B03588E0EDE14A
:10154000F1E0DE01919601900D928A95E1F780E23B
:10155000D8011D928A95E9F785E0898388E0FE012C
:10156000B196DE01159615C184ED898381E08A83E9
:101570001B821C8234C18C8190E0982F88272B819C
:10158000820F911D092E000CAA0BBB0B35E0880FB2
:10159000991FAA1FBB1F3A95D1F7AC01BD01405E50
:1015A0005F4F6F4F7F4F481759076A077B0708F453
:1015B00016C1843DE1E09E07A105B10508F00FC109
:1015C000453DF1E05F076105710520F044ED51E014
:1015D00060E070E0481B590BBC016A5F7E4FC80198
:1015E0000E94EF34FCC040E250E06FEF70E0C801B1
:1015F0000E9414368091F3028983EA821B821C8246
:101600008AE08D8389E00CC181E090E09093F8023C
:101610008093F70282E390E09093D4018093D3010A
:101620000E9471289093D2018093D101D8C0EF28F5
:10163000A9F1F090EA01F1FAFF24F0F88091D501C8
:10164000F8228091D1019091D2010E9456288536CE
:101650009105F0F0FF20E1F00E9471289093D201F3
:101660008093D1018091D3019091D40101979093FF
:10167000D4018093D301892B89F41092F80210923F
:10168000F70281E090E09093F4028093F30206C0A9
:1016900082E390E09093D4018093D3018091F30290
:1016A00089838091F7028A838091D3018B8397C0CD
:1016B0001092F4021092F30292C040E250E06FEFF9
:1016C00070E0C8010E9414368AC08B81843029F1F1
:1016D00028F4882349F0833079F081C08530E1F126
:1016E000863009F45BC07BC080E2D8011D928A95E8
:1016F000E9F788E08A83DACF6C81CE0181962AE00F
:10170000FC0111922A95E9F76830E0F5FAE06F9F45
:10171000B001112461527E4F2FC06C818AE0FE011E
:101720003596DE01919601900D928A95E1F7683029
:1017300070F42AE0629FB001112461527E4F4AE0AA
:1017400050E0CE0181960E94403580E001C08FEFCD
:1017500089830E94B92F43C06C81CE0181962AE013
:10176000DC011D922A95E9F7683060F4BAE06B9FBE
:10177000B0011124615D7D4F4AE050E00E94F834D1
:1017800080E001C08FEF89838AE0FE01B196DE011F
:10179000129601900D928A95E1F721C06C818AE042
:1017A000FE013596DE01919601900D928A95E1F742
:1017B000683070F4EAE06E9FB0011124615D7D4FE6
:1017C0004AE050E0CE0181960E94403580E001C0A1
:1017D0008FEF89830E94282F02C08FEF8983C80171
:1017E0000E94091A86C9E9BCF9BC09B400FEFDCF04
:1017F0008091D8008F7D8093D8008091E000826036
:101800008093E0008091E00081FDFCCF0E94FE1CEF
:1018100079C986E290E00E9408351B821C821D82F5
:101820008E83DDCF2B30310508F049CB87CB2B30B1
:10183000310508F09ACBD8CB2F923F924F925F920E
:101840006F927F928F929F92AF92BF92CF92DF92D0
:10185000EF92FF920F931F93CF93DF93CDB7DEB735
:101860002C970FB6F894DEBF0FBECDBFFC01808170
:10187000918123813481232B31F09F3F31F491E01A
:101880008F3F19F403C091E001C090E090FF02C0C7
:101890000C944E147F0161E0CF010E9418328C013C
:1018A000D70112968C91882309F4BBC0980122516C
:1018B0003F452031310508F0D1C08FEF93E00E9401
:1018C00008358111B8C002513FE7A32E32E0B32E94
:1018D000002379F0A114B4E0BB0609F4ACC0C50143
:1018E0000E940835811101C00150EFEFAE1ABE0A07
:1018F000EFCF19821A821B821C82CC24CA948501E4
:101900000F5F1F4FC5010E94083589831A82882303
:1019100009F491C0813009F07FC04501F2E08F0EDB
:10192000911CC8010E940835582E8A83882309F427
:1019300082C08FEF850D833050F40E5F1F4FC401BE
:101940000E9408358B83811167C05801D8CF8BEF77
:10195000850D8330A8F5350123E0620E711CC401AA
:101960000E9408358B83811102C08301EECF85016F
:101970000C5F1F4FC3010E9408358C83882329F315
:101980008B819C8181303FEF930718F0D82EB12CCA
:1019900002C0B82ED92E46E0541641F057E0551635
:1019A00051F08B2D9D2D0E94653005C08B2D9D2DF6
:1019B0000E946530CACF8B2D9D2D0E941230C5CF5D
:1019C00084E0581611F08401C0CFC4010E9408358C
:1019D000D82E85010C5F1F4FC50103960E94083564
:1019E000DD2049F1882339F1282F30E021503109D9
:1019F000C29EA001C39E500D11248D2D90E0019731
:101A0000840F951F019708F4A0CFAFE9BFE01197AD
:101A1000F1F700C00000F6CFCE0101960E94BD3163
:101A200094CF0031FFE51F0709F05DC681E00E94F9
:101A3000E31C0E9422158091AA02877009F42EC728
:101A4000D70112968C91882309F428C78091C4038A
:101A500082FD24C782E00E94B62620C70031BFE580
:101A60001B0711F481E005C00131EFE51E0721F4E9
:101A700082E00E94EF1CDDCF063ABDE51B0729F48A
:101A8000882369F08BEE92E008C0073AEDE51E0767
:101A900031F4882321F08AED92E00E945E31F70153
:101AA00022802220D1F00F35FDE51F0761F00036BE
:101AB0002DE5120761F00E353DE5130771F48091B5
:101AC0000C01811104C081E080930C01B4CF10920D
:101AD0000C0180E00E94FF29AECF80910C018111A2
:101AE0002DC0033F4CE5140709F4A7C1A8F4083D35
:101AF0008CE5180709F49BC1093D9CE5190709F419
:101B0000AEC1073DACE51A0709F0B2C106E221EE0D
:101B100041EE67ED7CE5A8C1053FBCE51B0709F474
:101B200098C108F490C1063FFCE51F0709F0A0C169
:101B300007E225EE46EE66EF7CE596C1480120EE11
:101B4000821A91083090CE028091A702382A8091A3
:101B5000CB02382A38E08316910480F4980127706C
:101B6000332781E090E001C0880F2A95EAF7222010
:101B700011F0382A18C08095382215C0222009F4A7
:101B800016C11093EC010093EB010E94652860934D
:101B9000AA037093AB038093AC039093AD031092B0
:101BA000B2031092B103D7018D919C910E94821CC7
:101BB00021E030E0F90102C0EE0FFF1F8A95E2F745
:101BC000FC87EB872091B3033091B40338872F83D0
:101BD0004091EB015091EC015A8749871D82422CBC
:101BE000512C5D81E52FF0E0EE0FFF1FE65DFB4F0E
:101BF000C080D180C114D10409F4F0C0311005C0F7
:101C0000D60112968C918111CEC0F601838190E0AD
:101C10002B853C8582239323892B09F4C4C08085BE
:101C2000982F977009F487E038E08316910440F408
:101C3000222019F081FD09C0B6C082FD06C0B3C0E4
:101C4000222009F4B0C080FFAEC0D601AD90BC9098
:101C50000A151B0519F4222009F4A5C0EF81F885A7
:101C6000CE16DF0609F49FC0D6011D96ED91FC91BA
:101C70001E97309721F08081882309F494C0632D4A
:101C8000C6010E946F2A882309F48DC00A151B051E
:101C900011F4320102C0612C712CB62DB170BE83DB
:101CA00081E0A114B10441F0B11106C0E985FA85C3
:101CB000AE16BF0609F080E080FF75C080E00E948C
:101CC000FF29D092B403C092B30381E08093B003A4
:101CD000D60115968C918093AE03BE81B11113C0CD
:101CE000AB2889F0F601808191819C012450310953
:101CF000213A310530F4682F83ED92E00E94A62846
:101D000002C00E94BF1DD6011696AD90BC901797D9
:101D1000C5019A9581159F4110F4E0EEBE2255242D
:101D20005394C5010197853A9D4508F0512CD60181
:101D30001996ED91FC911A97309739F01B966D9199
:101D40007C911C9781E009955822552029F1F601D4
:101D5000868197810E94A9348093AF03C501F8E082
:101D60008F16910418F40E94AE2916C00497813A88
:101D7000910530F46A2D83ED92E00E94CE280EC0CA
:101D80000E943D268FE39CE90197F1F700C0000017
:101D90008A2D0E941F1E02C00E943D2691E06926E6
:101DA00060FEC3C19ECEAD81AF5FAD831ACF80917F
:101DB000EB019091EC010817190781F41092EC01E6
:101DC0001092EB011092AA031092AB031092AC0395
:101DD0001092AD031092B2031092B1038091B3033D
:101DE0009091B403009709F47CCEB8E08B1691046F
:101DF00038F4632D0E946F2A811173CE81E014C0E4
:101E0000FC01208131810217130729F4211006C03B
:101E10001092B00308C0222009F463CEDC011896AA
:101E20008C9185FD5ECE80E00E94FF295ACE07E2AC
:101E300025EE45EE68ED7CE517C006E221EE40EEAA
:101E400063EF7CE511C007E225EE44EE64EF7CE52C
:101E50000BC006E221EE42EE65EF7CE505C008E22C
:101E600021E045EE69ED7CE5C7010E943B29E3CD09
:101E7000F7018281882309F490C11092B7030330DF
:101E8000FDE51F0758F40A3F2CE5120780F4C8014E
:101E900082509C45449708F035C109C001363DE5A4
:101EA000130729F0053A4DE5140709F02BC10E94EC
:101EB000A5259093C4038093C30301315CE5150706
:101EC00009F4C6C008F042C009309CE5190709F4BE
:101ED0009BC000F50530BCE51B0709F485C078F40C
:101EE0000330FCE51F0709F478C008F07AC002301F
:101EF0001C4509F0F7C08091C3038160F1C0073031
:101F00004CE5140709F478C008F07AC08091C30347
:101F10008061E6C00D308CE5180709F487C058F4DD
:101F20000B30ACE51A0709F479C008F07BC080914A
:101F3000C30388606FC00F30ECE51E0709F480C052
:101F400008F082C08091C303877FCAC00D3F2CE593
:101F5000120709F471C000F505314CE5140709F4C6
:101F600085C068F403318CE5180709F475C008F0E2
:101F700095C00E94FE1C8091C3038F77B1C00B3FB8
:101F8000ACE51A07A9F108F054C00A3F1C4509F056
:101F9000A9C08091C40340C00130FDE51F0709F4CA
:101FA00089C058F40F3F3CE5130709F45AC008F004
:101FB00069C08091C40382602FC001365DE51507BA
:101FC00009F47EC0053A8DE5180709F483C0023094
:101FD0001D4509F087C060E06EC08091C303826038
:101FE0007FC08091C30316C08091C303886078C00E
:101FF0008091C40382604FC08091C303806270C02F
:102000008091C30380646CC00E94FE1C8091C30356
:10201000806866C0846064C081603DC08091C303F5
:102020008E7F5EC08091C3038D7F5AC08091C303B1
:1020300016C08091C40318C08091C4038D7F2BC04B
:102040008091C3038F7E4CC08091C3038F7D48C0B5
:102050008091C3038F7B44C08091C303877F8B7FB4
:102060003FC08091C4038D7F8E7F15C08091C303D4
:1020700082FB222720F991E0922790FB82F990FBC6
:1020800083F92EC08091C403982F909591708E7F14
:10209000892B90FB81F98093C40324C00E94FE1C0D
:1020A0008091C30387FB222720F991E0922790FBC0
:1020B00087F916C061E08EE090E00E941C3512C0E6
:1020C0008091C30384FB222720F991E0922790FBA3
:1020D00084F906C08091C303982F909590FB80F9F6
:1020E0008093C3036091C3031091C40384E090E024
:1020F0000E941C35612F82E290E00E941C350E94F4
:10210000FE1C99CC0631FCE51F07A1F48091CB029F
:102110008A7A91E009F490E09093ED01882341F0F0
:1021200065E383ED92E00E94CE280E943D2683CC99
:1021300069E2F7CF0A35BDE51B0749F158F40115EF
:10214000FCE51F07B1F00E3D1C4509F047C00E9499
:10215000C12571CC0B353DE51307D9F00C351D4574
:10216000E9F58091C40382FB882780F991E08927F3
:1021700011C00E94FE1C5FEF84E39CE05150804040
:102180009040E1F700C000000E940C2854CC81E090
:1021900001C080E00E94D32621C006313CE5130730
:1021A00009F4A8C28091CB0282720C3CACE51A07FC
:1021B00009F454C308F0DAC2063CECE51E0709F442
:1021C00039C308F0B1C2033C2CE5120709F428C357
:1021D00008F09CC2023C1C4509F4FDC2D7011696CA
:1021E0008D919C9117970097B9F4F7018281008136
:1021F0001181882349F0C8010E944A1AD82E682FFD
:10220000C8010E94B21C04C0C8010E94821CD82EC2
:10221000B8018D2D0E94FC2B0E940B24C82E192F73
:10222000D70112960C9112971596DC90D2949FE0EC
:10223000D9228091AA028770B9F00023A9F0812FDA
:10224000807F803421F080E28C0D883068F08091AE
:10225000C40382FD09C082E00E94B6268091AA02D2
:102260008770BB24B3948111B12CA12EA2948FE06E
:10227000A8228A2D90E08C30910508F00FC2FC0155
:10228000EC59FF4F0C94B035812F807F1F7088234D
:1022900011F01295107F0023B9F0112309F4EAC15F
:1022A00080E28C0D883010F0C11006C09091CB02F6
:1022B000192B1093CB0205C09091FB02192B1093A0
:1022C000FB020E943D26D6C18C2D0E94BF1D11230A
:1022D00009F4E4C180E28C0D883080F1CC2071F1EA
:1022E00010959091FB0219231093FB022AC0812FB5
:1022F000807F1F70803211F01295107FCC2029F062
:10230000B1E0CB1609F45EC069C08091C40382FFBE
:102310001BC0002369F0112339F09091CB02192BD7
:102320001093CB020E943D2680E00E941F1EB6C182
:1023300080E00E94BF1D112309F4B0C1812F0E94CB
:1023400036260E943D26AAC1002331F1DD20F1F09E
:10235000E1E0DE120FC08091CE02182B181709F4AD
:102360009DC10E9471289093CD028093CC0210935E
:10237000CE0294C1F5E0DF1209C00E942B268091A5
:10238000A7021817C1F11093A70235C08091CE02A1
:10239000812B0E94B51D82C1DD2051F021E0D212B7
:1023A0000DC08091CB02812309F478C10E940627D9
:1023B0000E942B26812F0E94AE1D70C135E0D312E2
:1023C000F7CF6CC1002329F045E04D1508F466C134
:1023D00012C054E05D1508F461C1ECCF002369F030
:1023E000DD2049F0D70115968C91159780FF42C1E9
:1023F0008F7015968C93812FCCCFDD20D9F2B9E365
:10240000CB1249C1EFEFF7EE23E0E150F04020405E
:10241000E1F73FC1812F86958695837019F0813051
:1024200061F03CC1002321F08C2D912F937002C0EC
:1024300080E090E00E94192937C1002321F08C2D03
:10244000912F937002C080E090E00E9403292CC17C
:102450008C2D002319F00E94822202C00E94BB2111
:102460000E94912121C1812F8370A9F501111AC108
:102470004C2D429546954770440F440F8C2D8F701C
:1024800090E09C01042E01C0220F0A94EAF7C4FEDA
:1024900008C08FE090E001C0880F4A95EAF7809568
:1024A00001C080E0169516951370123069F088F41B
:1024B0009091CF02113019F0822B892302C0922B08
:1024C000892B0E94FA1CEEC0822B9091CF028927A3
:1024D000F8CF822BF6CF002319F0812F817001C035
:1024E0008695882309F4DEC04C2D429546954770A9
:1024F000440F440F8C2D8F7090E09C01042E01C07E
:10250000220F0A94EAF7C4FE08C08FE090E001C0F1
:10251000880F4A95EAF7809501C080E016951695D8
:102520001370123059F078F490911D02113019F0A7
:10253000822B892309C0922B892B06C0822B909174
:102540001D02892701C0822B0E94DF1CABC01F70B7
:10255000002339F0812F0E94EF1C8C2D0E94B51DA5
:10256000A1C08C2D0E94AE1D812F0E94E31C9AC039
:1025700032EFC31689F13C1538F040EFC41659F01C
:1025800051EFC51611F171C083EFC81661F194EFD8
:10259000C916B9F06AC0002379F0A4E0AD1508F4BB
:1025A0007DC01F7181E090E001C0880F1A95EAF7A5
:1025B00090911D02892721C0B5E0BD1508F46EC0B9
:1025C000F0CF8091C40382FF1BC0002339F0812F1C
:1025D0008F710E94EF1C62C00023C9F3812F8F719D
:1025E0000E94E31C5BC0002339F01F7181E001C031
:1025F000880F1A95EAF701C080E00E94DF1C4EC0E8
:102600000023D9F08091A7020E9436268091AA0269
:102610008770843039F40E94AF26812F8F710E9419
:10262000E31C5FC0E4E0ED1508F45BC01F71812F6F
:102630000E94EF1C63E0812F11C09091CB0280912A
:10264000A702892B8093CB02F4E0FD1550F40E9481
:10265000AF260E94062764E0812F8F710E94F0262A
:1026600040C081E00E94B6263CC0002329F0DD2056
:1026700009F4ADCF8C2D59CEDD2009F4AFCF29E37D
:10268000C21209C03FEF47EE53E031504040504086
:10269000E1F700C000008C2D0E94BF1D88EF8A0D5D
:1026A000843010F40E942F29BB20B1F08091AA023F
:1026B00080FD12C0D70112961C928595859585954F
:1026C0000E94EF1CC7010E941C0C8091AA028595F4
:1026D000859585950E94E31C60E0C7010E94183231
:1026E000DDC0B12CDFCF01312FE5120709F0C4C9DD
:1026F00082E09DC98091ED01882311F065E301C05E
:1027000069E283ED92E00E94A6280FCD043C5CE5CF
:10271000150709F48AC0053C1C4509F05FCD4AE263
:1027200051E263E371E29EC0093CACE51A0709F48B
:102730008BC070F4073CECE51E0709F480C0083C30
:102740001C4509F04BCD4EE151E262E171E28AC0D5
:102750000A3C2CE5120709F47CC00B3C1C4509F02F
:102760003DCD4DE75FE16EE87FE17CC0013D4CE58A
:10277000140709F483C098F40E3C8CE5180709F49B
:1027800077C008F472C00F3CACE51A0709F473C0B7
:10279000003D1C4509F022CD6EE089E077C0043D84
:1027A000ECE51E0709F470C060F4023D2CE5120749
:1027B00009F467C0033D1C4509F010CD61E088E1D4
:1027C0006AC0053D4CE5140709F463C00D351D458D
:1027D00009F431C903CD8091D40380FF1BC08E7FE3
:1027E0008093D4036091D4037091D5038091D60374
:1027F0009091D7030E946B1F10925C028FEF90E7BD
:10280000A2E081509040A040E1F700C000000E948B
:10281000011F11C981608093D40361E086953BC09C
:102820004EE751E267E871E21DC047E851E26EE70A
:1028300071E218C043E351E26AE271E213C042E17F
:1028400051E26EE171E20EC04AEF50E266E071E2E1
:1028500009C046E051E26AEF70E204C04EE85FE171
:102860006DE77FE10E94F230E6C861E081E013C0CD
:1028700065E082E00BC068E086E008C064E18FE0BC
:1028800005C067E185E102C062E289E10E94E030B3
:10289000D2C861E083E20E943C21CDC82C960FB6DD
:1028A000F894DEBF0FBECDBFDF91CF911F910F9186
:1028B000FF90EF90DF90CF90BF90AF909F908F9060
:1028C0007F906F905F904F903F902F9008958091F0
:1028D000140287FF11C08091E80082FD05C080913D
:1028E0001C028111F8CF11C08091E8008B770BC0DA
:1028F00080911C02882349F08091E80080FFF8CF86
:102900008091E8008E778093E8000895982F9730A3
:1029100068F59093E900981739F07091EC002091D8
:10292000ED005091F00003C0242F762F50E021FDE0
:1029300002C09F5FECCF3091EB003E7F3093EB0005
:102940003091ED003D7F3093ED003091EB00316030
:102950003093EB007093EC002093ED005093F00067
:102960002091EE0027FDE5CF80E008958F708093E1
:10297000E90081E0089520911A0230911B02261788
:10298000370748F06115710539F42091E8002E777A
:102990002093E80001C0B901FC0120E06115710538
:1029A00079F180911C028823F1F18530F1F1809159
:1029B000E80083FD3CC08091E80082FD2EC080913C
:1029C000E80080FFEBCF2091F3008091F20090E0CF
:1029D000922B6115710551F08830910538F42191E1
:1029E0002093F100615071090196F3CF21E008971F
:1029F00009F020E08091E8008E778093E800CECF48
:102A00002111CFCF0AC080911C02882361F085304C
:102A100061F08091E80083FD0AC08091E80082FFA8
:102A2000F2CF80E0089582E0089583E0089581E088
:102A300008950895BC0184E00C94E227BC0183E072
:102A40000C94E22780911D02982F9670963011F415
:102A5000886001C0877F0C94DF1C1F93CF93DF93A6
:102A6000CDB7DEB7AA970FB6F894DEBF0FBECDBFC5
:102A7000E4E1F2E08CE192E02091F10021938E17E5
:102A80009F07D1F780911502833009F463C030F4B9
:102A9000813071F0823009F49DC0B4C08A3009F4ED
:102AA00089C08B3009F46EC0893009F0ABC020C0FA
:102AB00080911402813A09F0A5C08091E800877FD7
:102AC0008093E8008091180290911902892B21F4DB
:102AD00060E281EF91E003C060E080E090E070E0B0
:102AE0000E94BB148091E8008B778093E8008AC035
:102AF00080911402813209F085C080911802909172
:102B00001902009719F0029709F07CC08091E80043
:102B1000877F8093E8008091E80082FD05C0809166
:102B20001C028111F8CF6EC02091F3008091F20059
:102B300090E0922B029731F48091F100813011F0F6
:102B4000863021F48091F1008093F0018091E800BB
:102B50008B7754C080911402813A09F053C0809160
:102B6000180290911902892B09F04CC08091E8005D
:102B7000877F8093E8008091E80080FFFCCF809100
:102B80000D0137C0809114028132E1F58091180265
:102B900090911902892BB1F58091E800877F80938D
:102BA000E8000E9467148091160280930D010E9434
:102BB000FE1C28C080911402813221F58091E8002A
:102BC000877F8093E8000E946714809117028093AA
:102BD000EF0118C080911402813AA1F48091E800BD
:102BE000877F8093E8008091E80080FFFCCF809190
:102BF000EF018093F1008091E8008E778093E800E8
:102C00000E9467148091E80083FFEBC18091140259
:102C100090911502492F50E04A30510508F0E1C16A
:102C2000FA01E059FF4F0C94B035803821F082381A
:102C300009F0D7C108C08091110290911202992326
:102C400089F082600FC0809118028F70873008F081
:102C5000C8C18093E9008091EB0085FB882780F94B
:102C60001092E9009091E800977F9093E80080939C
:102C7000F1001092F1007CC1282F2D7F09F0B1C125
:102C8000882319F0823061F0ACC180911602813046
:102C900009F0A7C1933009F080E0809312022EC0A2
:102CA0008091160281112AC0809118028F702FEF37
:102CB000280F263008F095C18093E9002091EB00A1
:102CC00020FF1CC0933021F48091EB00806214C07F
:102CD0009091EB0090619093EB0021E030E0A9012E
:102CE00002C0440F551F8A95E2F74093EA00109204
:102CF000EA008091EB0088608093EB001092E9007D
:102D00008091E800877F8093E8000E94671469C182
:102D1000811167C1109116021F778091E3008078BE
:102D2000812B8093E3008091E800877F8093E80007
:102D30000E9467148091E80080FFFCCF8091E3003F
:102D400080688093E300111102C082E001C083E03B
:102D500080931C0246C18058823008F042C1209105
:102D60001602309117022C3D53E0350779F583E0C8
:102D70008A838AE289834FB7F894DE01139620E0B4
:102D80003EE051E2E32FF0E050935700E49120FF42
:102D900003C0E295EF703F5FEF708E2F90E0EA3056
:102DA00010F0C79601C0C0968D939D932F5F24317C
:102DB00049F74FBF8091E800877F8093E8006AE27F
:102DC00070E0CE0101960E94BB14C0C08091180231
:102DD00090911902432F552743305105B1F068F403
:102DE0004130510509F40CC14230510509F0F9C0D8
:102DF0008BE590E0E5E2F4E057C04132510589F1FE
:102E00004232510509F43CC0ECC0C9019927813018
:102E10009105B9F070F082309105D9F0039709F06F
:102E2000E0C0E2E9F4E0E4918E2F90E0E2E9F4E022
:102E300038C0E2EFF4E0E4918E2F90E0E2EFF4E0AE
:102E400030C0E6EEF4E0E4918E2F90E0E6EEF4E0A0
:102E500028C0E0EBF4E0E4918E2F90E0E0EBF4E0AA
:102E600020C08330910508F0BCC0880F991FFC0179
:102E7000ED5BFE4F0190F081E02D89E090E014C001
:102E80008330910508F0ADC0FC01EE0FFF1FE35C3D
:102E9000FE4F0190F081E02DDC01A65CBE4F8C91CD
:102EA00090E0009709F49DC02091E800277F2093CF
:102EB000E80020911A0230911B022817390708F404
:102EC000C90140E0009789F120911C02222309F4F6
:102ED0003DC02530D9F12091E80023FD37C0209175
:102EE000E80022FD2FC02091E80020FFEBCF4091A9
:102EF000F3002091F20030E0342B009759F0283095
:102F0000310540F444914093F100319601972F5FD1
:102F10003F4FF3CF41E02830310509F040E02091E8
:102F2000E8002E772093E800CDCF4111CDCF0AC025
:102F300080911C02882351F0853041F08091E80097
:102F400083FD04C08091E80082FFF2CF8091E80009
:102F50008B778093E80045C0803809F042C08091AB
:102F6000E800877F8093E800809113028093F1004E
:102F70008091E8008E77C7CE811133C08091160210
:102F8000909117029927029764F58091E800877F56
:102F90008093E80010911602109313020E946714A8
:102FA000111106C08091E30087FD02C081E001C0DD
:102FB00084E080931C0242E061EC81E00E94861470
:102FC00042E261EC84E00E94861442E261EC82E01D
:102FD0000E94861442E260EC83E00E948614809195
:102FE0001C028091E80083FF10C08091E800877F79
:102FF0008093E8008091EB0080628093EB0005C035
:1030000082E190E0E0E8F4E04FCFAA960FB6F894A2
:10301000DEBF0FBECDBFDF91CF911F9108951F92EC
:103020000F920FB60F9211242F933F934F935F93FC
:103030006F937F938F939F93AF93BF93CF93DF93C0
:10304000EF93FF93C091E900CF708091EC00D82FEF
:10305000D17080FDD0E81092E9008091F000877F68
:103060008093F00078940E942D151092E9008091D1
:10307000F00088608093F000CD2BCF70C093E90002
:10308000FF91EF91DF91CF91BF91AF919F918F9180
:103090007F916F915F914F913F912F910F900FBE54
:1030A0000F901F901895E8EDF0E080818E7F80836F
:1030B0001092E2001092DA001092E100A0EEB0E06F
:1030C0008C9181608C9380818F77808319BCA7ED70
:1030D000B0E08C918E7F8C9380818F7E8083109264
:1030E000EE010895CF92DF92EF92FF920F931F931C
:1030F000CF93DF93C8EDD0E088818F7E8883E7EDA2
:10310000F0E080818160808384E082BF81E08093F1
:10311000EE0188818E7F888302EE10E0F801108234
:103120001092DA0081EEC82ED12CF601108288812F
:103130008F77888388818068888388818F7D888362
:1031400019BC10921C0210921302109212021092DB
:10315000110290EEE92EF12CF70180818B7F8083A4
:1031600088818160888342E060E080E00E9486146C
:10317000F60180818E7F8083F80180818160808369
:10318000808188608083F70180818E7F8083888141
:1031900080618883DF91CF911F910F91FF90EF9015
:1031A000DF90CF9008951F920F920FB60F921124C7
:1031B0002F933F934F935F936F937F938F939F933F
:1031C000AF93BF93EF93FF938091E10082FF09C01B
:1031D0008091E20082FF05C08091E1008B7F8093A7
:1031E000E1008091DA0080FF2AC08091D80080FF42
:1031F00026C08091DA008E7F8093DA008091D9001A
:1032000080FF18C080E189BD82E189BD09B400FE5C
:10321000FDCF81E080931C028091EE0181110FC0EF
:103220000E9453180E9472188091E200846080937B
:10323000E20005C019BC10921C021092EE018091B0
:10324000E10080FF17C08091E20080FF13C08091F1
:10325000E2008E7F8093E2008091E20080618093A3
:10326000E2008091D80080628093D80019BC85E08C
:1032700080931C028091E10084FF30C08091E200C5
:1032800084FF2CC080E189BD82E189BD09B400FEC4
:10329000FDCF8091D8008F7D8093D8008091E10090
:1032A0008F7E8093E1008091E2008F7E8093E20028
:1032B0008091E20081608093E20080911302882374
:1032C00011F084E007C08091E30087FD02C081E037
:1032D00001C083E080931C0280911C028091E10078
:1032E00083FF27C08091E20083FF23C08091E1002B
:1032F000877F8093E10082E080931C02109213028A
:103300008091E1008E7F8093E1008091E2008E7FCA
:103310008093E2008091E20080618093E20042E0CD
:1033200060E080E00E9486148091F00088608093C5
:10333000F000FF91EF91BF91AF919F918F917F919D
:103340006F915F914F913F912F910F900FBE0F9012
:103350001F9018952091E4003091E50095E640918A
:10336000EC00842F817040FF23C08091E80080FD35
:103370001DC080911C02882399F0853099F08091BE
:10338000EB0085FD11C04091E4005091E500241749
:10339000350729F3915011F09A01E1CF84E00895A7
:1033A00082E0089583E0089581E0089580E0089523
:1033B0004091E80042FFDDCF0895EF92FF920F9316
:1033C0001F93CF93DF937C018B010E94AA19811177
:1033D00019C0E70101151105A1F08091E80085FDF4
:1033E0000AC08091E8008E778093E8000E94AA19B5
:1033F000882381F307C089918093F100015011095E
:10340000E9CF80E0DF91CF911F910F91FF90EF9076
:103410000895CF9320911C022430F9F4C091E90063
:10342000CF703091EC00232F217030FD20E8C22BAB
:1034300022E02093E9002091E80020FF0BC040E04B
:1034400050E060E270E00E94DD198091E8008E7724
:103450008093E800CF70C093E900CF91089580E099
:1034600090E00E94192980E090E00E9403291092C8
:10347000FB020E943D26EFE4F2E086E0DF011D92B0
:103480008A95E9F7109249021092480210924A0276
:103490000C949121CF92DF92FF920F931F93CF93C1
:1034A000DF936C0100911D028091CF02082BC7E0D1
:1034B000D0E010E0C8010C2E02C0959587950A94C3
:1034C000E2F780FD04C02197A8F7F12C09C0FC2E7B
:1034D000B6018C2F0E94FC2B0E940B24019799F3BC
:1034E0008F2DDF91CF911F910F91FF90DF90CF90A3
:1034F0000895CF93DF93EC010E944A1ABE010E9407
:10350000FC2B0E940B24DF91CF910895FC01868152
:103510009781009719F00E940B2404C0808191814B
:103520000E94791A92959F70963079F010F492501B
:1035300001C09A50923068F4803F69F018F4883ED8
:1035400040F409C0843F29F406C0883E20F0813F42
:1035500011F080E0089581E008959F92AF92BF92AC
:10356000CF92DF92EF92FF920F931F93CF93DF934F
:10357000CDB7DEB765970FB6F894DEBF0FBECDBFEF
:103580008C0185E0F801DE01519601900D928A953B
:10359000E1F7F801E28090915D0260915E02409156
:1035A0006002509161024115510531F06F3F31F4D5
:1035B00081E09F3F19F403C081E001C080E0F82F53
:1035C000F1709F2E80FD4EC1F80130812181C380B2
:1035D000D4807DE5A72E72E0B72EF0905F02F60151
:1035E000E41BF50BFF2009F4EFC080916202E83C78
:1035F000F10508F0AAC0482F407F09F05AC06213B5
:103600001BC0931319C06091630270916402F801AA
:10361000468157816417750779F4FE2CE1100CC0C0
:103620008F70806180936202C5010E941C0C8091A2
:103630006202F801858353C1CD2831F02F3F31F468
:1036400081E03F3F19F403C081E001C080E080FDCC
:1036500003C081E08E2502C080E090E0F82FF17079
:10366000FF2E80FF1CC08091A60240916502841746
:1036700009F413C190E0FC0153E0EE0FFF1F5A95CF
:10368000E1F7EA59FD4F5181251306C050815313CC
:1036900003C05281E51203C001968770E8CFFE2C6B
:1036A000EE2009F41CC18091620281608093620265
:1036B00058C062130FC093130DC040916302509124
:1036C0006402F801268137814217530719F4EE206E
:1036D00009F4A7C0C8010E94861A882381F1EE2050
:1036E00071F120916202822F82958F7090E0029793
:1036F000A4F080915D0290915E029A8789871B8673
:10370000DD86CC862E878091630290916402988B2F
:103710008F87CE0109960E941C0C88E0F801ADE568
:10372000B2E001900D928A95E1F70E9416270AC037
:103730006217C9F0C8010E94861A811127C0C8010A
:103740000E941C0CFF24F394CAC0482F407F81F7CD
:103750008DE592E00E941C0C88E0F50111928A959B
:10376000E9F7F12CBCC09313E5CF4091630250916F
:103770006402F8012681378142175307D9F6E11018
:10378000D9CF8583C8010E941C0C66C0EE20B9F217
:1037900020916202822F82958F7090E002970CF444
:1037A000BCCF80915D0290915E029A8389831B82D7
:1037B000DD82CC822E83809163029091640298878F
:1037C0008F83CE010196A7CFE83CF10508F044C0F5
:1037D000FE2CEE2009F4B3CF621330C093132EC039
:1037E0002091630230916402F80186819781281745
:1037F000390721F59091620290FD17C0892F8295BB
:103800008F70282F30E02115310579F095832F3006
:10381000310541F08F5F982F9295907F85818F7051
:10382000892B8583C8010E941C0C88E0F801ADE556
:10383000B2E001900D928A95E1F751C0C8010E9453
:10384000861A81116ACF8091620281608093620240
:10385000C8010E941C0C43C088E0F50111928A95B2
:10386000E9F73DC0EE2009F46ACFC8010E94861A2C
:10387000F82E882309F463CF88E0F801ADE5B2E0C3
:1038800001900D928A95E1F780915D0290915E0220
:103890000E94791A0E94162722C0398B2A8B8989A7
:1038A0009A890E94791A292F22952F70223028F4A4
:1038B0009F7039F0811105C00BC0243028F49F702F
:1038C00049F4805E883020F0C8010E941C0C9F2CB7
:1038D000F92C05C0F8019581907F99F7F9CF8F2DCC
:1038E00065960FB6F894DEBF0FBECDBFDF91CF91C6
:1038F0001F910F91FF90EF90DF90CF90BF90AF900E
:103900009F9008959E3F61F12AE0929F800D1124BF
:10391000682F669566956695982F977083E0689FE7
:10392000B001112440E050E080E0FB01E40FF51FFE
:10393000E25EFD4F208130E0092E02C036952795CA
:103940000A94E2F721703327042E01C0220F0A9453
:10395000EAF7822B4F5F5F4F4330510531F70895EF
:1039600080E008959E3F51F12AE0929F800D11243E
:10397000E82FE695E695E695877051E001C0550F72
:103980008A95EAF783E0E89FF0011124E25EFD4F9B
:1039900020E030E070E04081CB01022E02C096951D
:1039A00087950A94E2F7817081958427852384277F
:1039B00081932F5F3F4F2330310569F7089580933E
:1039C0001D020C942F1A21E030E001C0220F8A95CD
:1039D000EAF7209580911D0282230C94DF1C21E0E0
:1039E00030E001C0220F8A95EAF780911D02822BF8
:1039F0000C94DF1C8093CF020C942F1A1092CB02F0
:103A000080910D01882331F08091C30387FF02C0AC
:103A10008EE101C086E0E5EDF2E0DF011D928A95BE
:103A2000E9F70C942F1ACF93DF93CDB7DEB76097E9
:103A30000FB6F894DEBF0FBECDBF29873A874B87FC
:103A40005C876D877E878F87988BCE0109960E9451
:103A5000AD1A811151C088E0FE013996DE01119640
:103A600001900D928A95E1F779856A854C855D858F
:103A70004115510531F06F3F31F481E07F3F19F47A
:103A800003C081E001C080E080FD36C0A0916502E6
:103A9000B0E0CD010196877099272091A60230E011
:103AA0008217930781F179836A835D834C8393E066
:103AB000AA0FBB1F9A95E1F7AA59BD4F98E0FE01E6
:103AC000319601900D929A95E1F7809365020E94DC
:103AD0000C2712C028E0829FC00111248A599D4FF3
:103AE0000E94AD1A8823E1F08091A60290E0019631
:103AF000877099278093A6028091A6029091650213
:103B00008913E8CF0DC00E94FE1C1092650210922E
:103B1000A602EDE5F2E088E0DF011D928A95E9F763
:103B200060960FB6F894DEBF0FBECDBFDF91CF9188
:103B30000895882341F080959091FB02892380931A
:103B4000FB020C943D260895882339F09091FB02E6
:103B5000892B8093FB020C943D260895882321F045
:103B60000E9436260C943D260895882339F09091C2
:103B7000CB02892B8093CB020C943D260895882399
:103B800009F45CC0823869F40E942F2981FF56C075
:103B900069E383ED92E00E94CE280E943D2669E30E
:103BA0000EC0833891F40E942F2980FF47C063E53F
:103BB00083ED92E00E94CE280E943D2663E583EDCE
:103BC00092E00E94A6280C943D26843869F40E9455
:103BD0002F2982FF33C067E483ED92E00E94CE2854
:103BE0000E943D2667E4EBCF9CEF980F913A10F4CA
:103BF000682FE5CF90E2980F983050F4877091E0ED
:103C000001C0990F8A95EAF7892F0E943626DBCFEB
:103C10009BE5980F933020F480E090E00C941929F4
:103C200098E5980F973120F480E090E00C940329F8
:103C3000803F20F00E94BB210C9491210895CF93E6
:103C4000882309F4BEC0C82F8238B1F40E942F29FE
:103C500081FDB7C069E383ED92E00E94CE280E9407
:103C60003D262FEF81EE94E0215080409040E1F717
:103C700000C0000069E317C08338E1F40E942F29D7
:103C800080FD9FC063E583ED92E00E94CE280E94F4
:103C90003D262FEF81EE94E0215080409040E1F7E7
:103CA00000C0000063E583ED92E00E94A628CF915A
:103CB0000C943D268438B1F40E942F2982FD81C0E6
:103CC00067E483ED92E00E94CE280E943D262FEF0C
:103CD00081EE94E0215080409040E1F700C0000068
:103CE00067E4E1CF8CEF8C0F813AC0F580910D0134
:103CF0008823E1F08091C30387FF18C0EC2FE6957D
:103D0000E695E695F0E0ED52FD4F8281282F30E0F8
:103D10004C2F477081E090E002C0880F991F4A95B0
:103D2000E2F782239323892B61F412C0E5EDF2E0E0
:103D30008BED92E02191C21721F08E179F07D1F7EA
:103D400007C06C2F83ED92E00E94A6280E943D26BA
:103D50006C2F83ED92E00E94CE28A9CF80E28C0FD9
:103D6000883068F4C77081E090E001C0880FCA9580
:103D7000EAF79091CB02892B8093CB0298CFEBE5A9
:103D8000EC0FE33040F4F0E0E259FE4F808190E028
:103D9000CF910C941929E8E5EC0FE73150F4F0E0ED
:103DA000EE0FFF1FEF58FE4F80819181CF910C9451
:103DB0000329C03F30F08C2F0E948222CF910C94B7
:103DC0009121CF9108951F93CF93DF93182F8933BB
:103DD00019F0C0E0D0E002C0C0E5D0E0812F0E9421
:103DE0001F1E209741F08FE99FE00197F1F700C077
:103DF00000002197F6CF812FDF91CF911F910C9476
:103E0000BF1D8091D40380FF0AC0849A81B38F7E46
:103E100091B390612FB7F894EBECF3E013C01092DC
:103E2000CC031092CB031092CD031092CF031092CB
:103E3000CE031092D0031092D2031092D1031092AD
:103E4000D303E3CF33E0E43DF30789F0319148E059
:103E500091BB000000C037FF81BB330F000000C0E2
:103E600000C000C081BB00C04A9591F7EBCF2FBFC7
:103E70008FE594E00197F1F700C00000089590915C
:103E8000D40390FF14C08093CC036093CB03409382
:103E9000CD038093CF036093CE034093D0038093F0
:103EA000D2036093D1034093D3030C94011F089570
:103EB0008091D403282F269530E02115310519F47F
:103EC0008170826005C02532310524F081708864DC
:103ED0008093D4030895CF92DF92EF92FF926B010B
:103EE0007C010E94581FB701A60188E090E0FF9076
:103EF000EF90DF90CF900C942E358091D8038823DB
:103F000019F081508093D8036091D4037091D50348
:103F10008091D6039091D7030C946B1F8091D803A6
:103F2000833018F48F5F8093D8036091D40370912D
:103F3000D5038091D6039091D7030C946B1FE4EDC9
:103F4000F3E083E1808380E481838FEF8283838346
:103F5000148260817181828193810C946B1FAF9276
:103F6000BF92CF92DF92EF92FF920F931F93CF9366
:103F7000DF93E82EF62EE901E42FF0E0611106C090
:103F8000EA50FB4FE4914E2F2E2F71C0062F10E008
:103F9000EA50FB4F4491F42FC42ED12C26E0829F8F
:103FA000C00111242FEF30E0B9010E9466355BEAB1
:103FB0005603C001579F900D11248E0D911D8E0D3B
:103FC000911D582F550F580FD901A01BB10BAC9D57
:103FD000C001AD9D900DBC9D900D1124E92FF59E63
:103FE000D0011124AB2FBB277901EA1AFB0AEC9C04
:103FF000D001ED9CB00DFC9CB00D11245901A51A07
:10400000B108A09E7001A19EF00CB09EF00C11248E
:10401000EF2CFF242E193F092C9D80012D9D100DA2
:104020003C9D100D1124212F6230710591F048F450
:1040300061157105E1F061307105B9F4242F4B2F42
:1040400016C06430710569F040F06630710579F092
:104050000CC0242F492FE12F0AC0492FEF2F2B2FFF
:1040600006C0292FE42F412F02C0292FEB2F4983AF
:104070002883EA83DF91CF911F910F91FF90EF90FA
:10408000DF90CF90BF90AF900895CF93DF9300D093
:104090001F92CDB7DEB79091D40390FF0AC09E0166
:1040A0002F5F3F4F0E94AF1F4B8169818A810E9421
:1040B0003F1F0F900F900F90DF91CF9108955F9267
:1040C0006F927F928F929F92AF92BF92CF92DF9228
:1040D000EF92FF920F931F93CF93DF9300D01F9225
:1040E000CDB7DEB7182F762E042F622E9091D40311
:1040F00090FF6DC0E92FE695AE2FB0E0A75BBE4FF5
:104100008C9180935B029E7F923061F49E012F5FC1
:104110003F4F812F0E94AF1F4B8169818A810E948E
:104120003F1F43C0823019F40091D7033EC0863050
:1041300019F41091D50339C08930D9F38931A9F523
:10414000E9518E2F8170582EE695F0E0EA50FA4F33
:10415000A590B4908BECC82E83E0D82EE12CF12CE6
:10416000BB2493E0892E912CAE9CC001AF9C900D96
:10417000BE9C900D1124B4010E946635812F511010
:1041800002C0860F01C0861B9601402F672D0E943A
:10419000AF1F8FEFE81AF80A83E0C80ED11C83E046
:1041A000E816F10409F70E94011F1093D5037092DD
:1041B000D6030093D703662051F06091D403709129
:1041C000D5038091D6039091D7030E946B1F0F9067
:1041D0000F900F90DF91CF911F910F91FF90EF9073
:1041E000DF90CF90BF90AF909F908F907F906F9017
:1041F0005F900895E4EDF3E0438121E1421B08F470
:1042000040E021E0628181810C945F20E4EDF3E0E5
:10421000438121E1420F08F44FEF21E06281818167
:104220000C945F20E4EDF3E0628121E1621B08F46D
:1042300060E021E0438181810C945F20E4EDF3E0B4
:10424000628121E1620F08F46FEF21E043818181F7
:104250000C945F20E4EDF3E0818121E043816281F1
:1042600088500C945F20E4EDF3E0818121E04381EC
:104270006281885F0C945F209091D40390FF3DC0D1
:104280009170811102C0926006C0853210F098646E
:1042900002C0880F982B9093D403662351F060914D
:1042A000D4037091D5038091D6039091D7030E94D7
:1042B0006B1F6091D403669570E04BE050E08EE098
:1042C00091E00E94FA35892B19F010925C0209C026
:1042D00081E080935C020E94712890935602809343
:1042E000550281E08093580220E04091D70360910D
:1042F000D6038091D5030C945F2008958091D40358
:104300008695815009F484E261E00C943C2180910F
:10431000D40386958F5F853208F081E061E00C94CC
:104320003C210E94712820915102211104C020914A
:104330005202222321F090934E0280934D0220914D
:104340005302211104C020915402222321F09093A2
:104350004C0280934B02E091BA03F091BB0330977B
:1043600049F082E080934F020480F581E02D8FE4D4
:1043700092E009940895803F39F48091520287FFBA
:104380006AC01092520267C0813F29F480915202A4
:104390001816BCF360C090915102823F29F497FF38
:1043A0005AC01092510257C0833F19F41916CCF32A
:1043B00052C090915302893F31F419160CF04BC052
:1043C0001092530248C08A3F19F497FF44C0F8CFB7
:1043D0008B3F39F48091540287FF3DC01092540204
:1043E0003AC08C3F29F4809154021816BCF333C0B4
:1043F000843F21F4809150028E7F17C0853F21F4C5
:10440000809150028D7F11C0863F21F4809150022F
:104410008B7F0BC0873F21F480915002877F05C0BE
:10442000883F31F4809150028F7E8093500213C0F8
:104430008D3F21F480914A028E7F0BC08E3F21F484
:1044400080914A028D7F05C08F3F29F480914A02F6
:104450008B7F80934A0280915102811106C0809126
:104460005202811102C010924902809153028111BF
:1044700006C080915402811102C010924802089532
:1044800080914A0280FD16C081FD16C082FD18C0D1
:1044900080914802882391F0883290F428E0829F2E
:1044A000C001112468E270E00E947A35862F672BE4
:1044B00029F007C082E0089584E0089581E008951E
:1044C00088E0089580914A0280FD14C081FD14C0E7
:1044D00082FD16C080914902882381F08E3180F4DC
:1044E00020E5829FC00111246EE170E00E947A35C0
:1044F000862F089584E1089588E2089588E008955C
:1045000080E50895803F21F40E946222819504C0D5
:10451000813F29F40E946222809352020895823FD3
:1045200021F40E946222819504C0833F29F40E94F5
:104530006222809351020895893F19F40E9440221B
:1045400005C08A3F31F40E94402281958093530236
:1045500008958B3F21F40E944022819504C08C3F36
:1045600029F40E944022809354020895843F21F44C
:1045700080915002816017C0853F21F480915002E4
:10458000826011C0863F21F48091500284600BC08C
:10459000873F21F480915002886005C0883F31F444
:1045A0008091500280618093500208958D3F21F4E4
:1045B00080914A0281600BC08E3F21F480914A02B3
:1045C000826005C08F3F29F480914A028460809305
:1045D0004A02089580E008959091C30392FF0DC0B0
:1045E000282F2871283019F4877F846006C0282F6F
:1045F0002471243011F48B7F886093FF0DC0282F25
:104600002871283119F4877E846106C0282F24710F
:10461000243111F48B7E88612091C40320FF0DC0EA
:10462000382F3871383019F4877F816006C0382FF1
:104630003171313011F48E7F886021FF0DC0282F39
:104640002871283119F4877E816106C0282F2171D5
:10465000213111F48E7E886194FD877E0895F8944F
:10466000E82FE295EF70F0E031A1282F2F7081E064
:1046700090E001C0880F2A95EAF7982F9095932330
:1046800091A392A1892B82A3789408958F929F92EF
:10469000AF92BF92CF92DF92EF92FF920F931F9350
:1046A000CF93DF93CDB7DEB766970FB6F894DEBF32
:1046B0000FBECDBFAE014F5F5F4F7A0186E1FA01B9
:1046C00011928A95E9F705E211E06A01AA24A39400
:1046D000B12CF80180818F3F09F447C0F894E82F8E
:1046E000E295EF70F0E021A18F70A50102C0440FA8
:1046F000551F8A95E2F7CA01922F982B91A392A198
:104700008095892382A3789400C0E0E3F1E021E062
:1047100030E0812C912C41914F3F89F0A42FA2953C
:10472000AF70B0E090968C9190E04F7002C095957C
:1047300087954A95E2F780FD02C0C90102C080E07A
:1047400090E0882A992A220F331F51E0EA33F507B7
:1047500011F7F80180818F3F11F00E942F23F0EABA
:10476000FA95F1F7F601918280820F5F1F4FF2E018
:10477000CF0ED11C41E00033140709F0AACF46E167
:1047800050E0B70182EA91E00E94073611E00097FD
:1047900009F410E0892B89F086E1F701A2EAB1E083
:1047A00001900D928A95E1F781E08093D2020E94F8
:1047B00071289093D1028093D0028091D2028823F5
:1047C000B1F08091D0029091D1020E9456280597B5
:1047D00070F0E2EAF1E0A5EDB1E0819191918D9365
:1047E0009D9351E0E83BF507C1F71092D202812F6B
:1047F00066960FB6F894DEBF0FBECDBFDF91CF91A6
:104800001F910F91FF90EF90DF90CF90BF90AF90EE
:104810009F908F900895CF93DF938238910569F12F
:10482000B0F48133910509F46FC048F489329105E1
:1048300009F465C08A32910509F46BC08AC08533DA
:10484000910509F457C089339105B9F082C0833EC0
:10485000910571F138F4803E9105B1F0823E9105E9
:1048600011F177C0863E9105B9F1873E9105C9F1F6
:10487000843E910509F06DC024C02091C30320FD42
:1048800053C021FD51C065C08091C30380FD46C067
:104890008091C40380FF48C08091C30384FD50C150
:1048A00083EE90E04FC18091C30382FF3AC0F4CF02
:1048B0008091C30382FD35C08091C40380FD34C064
:1048C000EBCF8091C40381FF35C08091C30384FD89
:1048D00037C187EE90E036C18091C30383FF27C0C4
:1048E000F4CF8091C30383FD22C08091C40381FD76
:1048F00021C0EBCF8091C30385FD1FC021C08091F3
:10490000C30385FD1DC019C08091C30386FD1BC074
:104910001DC08091C30386FD19C015C089E390E0D6
:1049200011C182EE90E00EC180EE90E00BC186EEE8
:1049300090E008C184EE90E005C189E290E002C1F8
:1049400085E390E0FFC08AE290E0FCC081E390E064
:10495000F9C0811531E5930708F069C0811540E57C
:104960009407F0F09C0174E0369527957A95E1F76D
:10497000922F9370482F437021E030E002C0220F45
:10498000331F4A95E2F73C68392B982F9F70969514
:10499000969540E2949FC0011124822B932BD2C0A4
:1049A000883E910568F5803E910508F0CBC0883AB5
:1049B0009105B8F4853A910548F0855AE82FF0E062
:1049C000E259FE4F808190E09064BCC08130910537
:1049D00009F4B3C008F4B4C08430910508F4B0C041
:1049E000B1C08F3B910508F0ABC0885AE82FF0E0CA
:1049F000EE0FFF1FEF58FE4F808191819464A2C09B
:104A0000811520E2920758F4811531E0930708F0F0
:104A100099C0803F910508F493C0906593C08115BB
:104A200040E4940708F48CC09F70906A8BC0811595
:104A300025E5920708F042C0811534E5930728F078
:104A4000982F8827846F906A7DC0811543E594076D
:104A5000B0F09C012370332741E050E002C0440FC6
:104A6000551F2A95E2F7282F2695269580E2289F44
:104A700090011124CA01822B932B9A6863C081157F
:104A800022E5920728F4982F8827816F906A5AC0F0
:104A90009C012370332741E050E002C0440F551FB2
:104AA0002A95E2F7282F2695269580E2289F9001E7
:104AB0001124CA01822B932B9C6844C0EC01811500
:104AC00039E59307A8F48115984528F09C2F88278D
:104AD000806F906A37C0C11586E5D80788F58C2F9E
:104AE0000E94EC228F7190E0982F882790622AC054
:104AF00081152AE5920790F48C2F8F700E94EC228A
:104B000094E0D695C7959A95E1F7CF70D0E0DC2F69
:104B1000CC27D0699E01282BC90114C0905681155D
:104B2000904270F48D2F8F710E94EC22282F2F71EC
:104B3000CE0199279062922B05C081E090E002C0DF
:104B400080E090E0DF91CF910895CF9384E090E0F2
:104B50000E940835C82F82E290E00E9408352C2F71
:104B600030E0A901582BCA01CF91089580E090E070
:104B70000E941635893E9E4F11F40C94C73080E098
:104B8000089569EE7EEF80E090E00E943A3560E0A3
:104B900082E090E00E941C3560E083E090E00E949B
:104BA0001C351092CF0260E084E090E00E941C353A
:104BB00060E082E290E00E941C3560E085E090E0D9
:104BC0000E941C3560E086E090E00E941C356FEF8B
:104BD00087E090E00E941C3540E050E0BA0188E098
:104BE00090E00E942E3560E08DE090E00E941C3540
:104BF00040E050E0BA0188E190E00E942E3560E08C
:104C000087E190E00E941C3540E050E0BA018CE161
:104C100090E00E942E3560E070E080E290E00E941B
:104C20003A3540E050E0BA0188E190E00E942E352C
:104C300080E00E949A300E94B83040E050E0BA0113
:104C40008FE090E00E942E3540E050E0BA0183E111
:104C500090E00C942E358091CE02882331F0109292
:104C6000CE021092CD021092CC02089580959091C0
:104C7000CB0289238093CB020895CF939091CB02EE
:104C80008091FB02892B8093D3028091CE028823EE
:104C900061F10E9471282091CC023091CD02821BDB
:104CA000930B8838934110F00E942B269091D302E9
:104CB0008091CE02892B8093D30280910D018823AD
:104CC00031F08091C30387FF02C08EE101C086E00E
:104CD000E5EDF2E090E0815028F021912223D9F314
:104CE0009F5FF9CF91110E942B26C091AE03C09512
:104CF0008091D302C8238091AF03C82BC093D30205
:104D000040E250E06BEA72E083ED92E00E940736E9
:104D1000892B19F180E2E3EDF2E0ABEAB2E0019019
:104D20000D928A95E1F7E091BA03F091BB033097B9
:104D3000A1F080910D01882349F08091C30387FF82
:104D400005C0C093D40286E08093D3020280F38131
:104D5000E02D83ED92E0CF910994CF9108951092C8
:104D6000AA021092A9021092A80208952091AA0204
:104D7000809582238093AA02982F977099F430E04F
:104D8000482F082E000C550B2417350759F0909129
:104D9000C40392FD07C08595859585950E94E31C07
:104DA0000C94AF260895CF93C091C403C2FB9927FA
:104DB00090F9981799F080FBC2F9C093C4036091F1
:104DC000C30384E090E00E941C356C2F82E290E0E7
:104DD0000E941C3582E0CF910C94B626CF910895A5
:104DE0009091C40392FD10C098E0899F9001112416
:104DF000262B2093AA020E94EF1C0E9471289093F8
:104E0000A9028093A80208950C94EF1C8091A70238
:104E100081111092A70208958091A60290916502D7
:104E2000891719F08F5F8770FBCF08951F93CF9379
:104E3000DF938091620282958F7009F05CC080914F
:104E40005F02882309F457C08091A6021091650281
:104E500060915D0270915E02C0916002D09161022A
:104E600091E06F3F09F090E0292F811709F443C0CA
:104E7000209721F07F3F21F030E003C031E001C0F6
:104E8000322F90E030FD34C0FC0133E0EE0FFF1F05
:104E90003A95E1F7DF01AA59BD4F11963C91119760
:104EA000371326C03C91361323C012963C911297BB
:104EB00031111EC013964D915C9114974C1B5D0BE4
:104EC000483C5105A8F4809162028F708061809304
:104ED0006202E559FD4F80818F70806180838DE58E
:104EE00092E00E941C0CDF91CF911F910C940C2733
:104EF00001968770BACFDF91CF911F91089580916D
:104F0000F001089524E02093E9002FEF3091E800AC
:104F1000215035FD06C035ED3A95F1F7000021111D
:104F2000F5CF2091E80025FF0BC040E050E066E09F
:104F300070E00E94DD198091E8008E778093E80090
:104F40000895CF93DF9320910D01222339F0209112
:104F5000C30327FF03C060E224E002C068E021E051
:104F60002093E9002FEF3091E800215035FD06C075
:104F700035ED3A95F1F700002111F5CF2091E800C9
:104F800025FF1DC0EC0180910D01811105C040E09D
:104F900050E068E070E003C070E040E050E0CE0117
:104FA0000E94DD198091E8008E778093E80080E20E
:104FB000FE01A1EFB1E001900D928A95E1F7DF913A
:104FC000CF9108958093C5037093C7036093C60380
:104FD00080911C028430F9F48093E9008FEF909166
:104FE000E800815095FD06C095ED9A95F1F7000017
:104FF0008111F5CF8091E80085FF0DC040E050E0C1
:1050000063E070E085EC93E00E94DD198091E80098
:105010008E778093E800089581E08093E00080E23D
:105020008093D8001092C9008FE19EE40197F1F7B8
:1050300000C0000087E090EBDC018093B404909303
:10504000B504A093B604B093B7049CE088E10FB612
:10505000F894A895809360000FBE90936000FFCFF6
:1050600078941F920F920FB60F9211248F939F93F3
:10507000AF93BF938091BF039091C003A091C103F0
:10508000B091C2030196A11DB11D8093BF039093FF
:10509000C003A093C103B093C203BF91AF919F918E
:1050A0008F910F900FBE0F901F9018959C014FB7D6
:1050B000F8948091BF039091C003A091C103B09177
:1050C000C2034FBF821B930B08952FB7F8946091D2
:1050D000BF037091C0038091C1039091C2032FBFA1
:1050E00008952FB7F8948091BF039091C003A091C9
:1050F000C103B091C2032FBF08951F920F920FB644
:105100000F9211248F939F93AF93BF938091BE030F
:10511000811113C08091BF039091C003A091C1037E
:10512000B091C2034196A11DB11D8093BF0390931E
:10513000C003A093C103B093C203BF91AF919F91ED
:105140008F910F900FBE0F901F90189520910D0119
:105150002223C9F02091C30327FF15C0262F2695CF
:10516000269526952E31C8F4FC01E20FF11D6770DB
:1051700081E090E001C0880F6A95EAF780959281FE
:10518000892382830895FC0106962281621301C05F
:1051900012823196E817F907C1F7089520910D01A1
:1051A0002223C1F02091C30327FF14C0262F269588
:1051B000269526952E3130F5FC01E20FF11D677022
:1051C00081E090E001C0880F6A95EAF79281892B0F
:1051D00082830895FC0132962FEF30E041916417ED
:1051E00089F02F3F19F4411101C0232F3F5F363062
:1051F000A9F72F3F39F0FC01E20FF11D27FDFA95C9
:105200006283089508952091BC033091BD0328174F
:10521000390771F09093BD038093BC03E091BA030A
:10522000F091BB03309721F00084F185E02D0994C3
:1052300008952091B8033091B9032817390771F008
:105240009093B9038093B803E091BA03F091BB0344
:10525000309721F00680F781E02D09940895E091C0
:10526000BA03F091BB03309721F00190F081E02D5B
:10527000099480E008950F931F93CF93DF93C42F79
:10528000D22FFC0182818823C9F04093B7030E948A
:1052900071289093B6038093B50380E28C0F883019
:1052A00008F057C0C77081E001C0880FCA95EAF7BF
:1052B000DF91CF911F910F910C94B51D8091B70391
:1052C000481330C08091B5039091B6030E945628D0
:1052D000883C910538F510E21D0FCD17B9F080E23A
:1052E0008C0F883040F4C77081E001C0880FCA95E8
:1052F000EAF70E94AE1D183028F581E09D2F9770C7
:1053000001C0880F9A95EAF70E94B51D802F0E9470
:10531000E31E1830F0F4D77081E001C0880FDA95F1
:10532000EAF70AC080E28C0F883098F4C77081E0F9
:1053300001C0880FCA95EAF7DF91CF911F910F91B5
:105340000C94AE1D802FDF91CF911F910F910C9483
:10535000E31EDF91CF911F910F910895CF93DF93BB
:10536000EC014091AA035091AB036091AC037091A2
:10537000AD032FB7F8948091BF039091C003A09123
:10538000C103B091C2032FBF841B950BA60BB70BB3
:10539000843F9140A105B105A8F48091AA039091A2
:1053A000AB03A091AC03B091AD038093A60390939F
:1053B000A703A093A803B093A90384EF91E0A0E012
:1053C000B0E00EC00E9465286093A6037093A70307
:1053D0008093A8039093A90382E390E0A0E0B0E05B
:1053E0008093A2039093A303A093A403B093A50377
:1053F000D093B203C093B103DF91CF910895FF9290
:105400000F931F93CF93DF930091B3031091B403D5
:105410000115110509F45CC01092B2031092B1039A
:105420001092AE031092AF03D80116966D917C9145
:1054300017979B013A9521153F4108F4707EC62FBE
:10544000D1E0611101C0D0E0F82ED8011996ED919C
:10545000FC911A97309739F01B966D917C911C97AF
:1054600080E00995D823DD2379F08CEF8C0F813A09
:1054700030F46C2F83ED92E00E94A62805C00E94B4
:105480003D268C2F0E94BF1DE091B303F091B40321
:1054900040815181FF2071F0808584FD0BC0809197
:1054A000B003882339F091E09A0121503109253A5F
:1054B0003D4508F090E090FF03C0CA010E94AE296C
:1054C0000E943D261092B4031092B3031092B003D1
:1054D000C801DF91CF911F910F91FF900895FC01BA
:1054E00084818623C1F492819923B9F08085692350
:1054F00083FF04C081E0611111C00DC0892F8F703E
:1055000092959F70982B862F8F7062956F70682B85
:1055100081E0961719F080E0089581E00895BC01BC
:1055200040919E0380919F03942F981729F1292F72
:1055300030E0F901EE0FFF1FEA56FC4F0190F081B9
:10554000E02DE617F70799F487E0869FF001879F23
:10555000F00D1124E25AFC4F81E0848394130CC0B7
:105560002F5F3F4F2370332720939E0308952F5FB3
:105570003F4F922F9370D9CF08950F931F93CF93DE
:10558000DF938091FD02882309F453C0C091FC028F
:105590001CE08091FD02C81708F047C001E00C0F25
:1055A0000093FC02D0E01C9FF0011D9FF00D112420
:1055B000E250FD4F9081818123813481232B31F092
:1055C0008F3F31F481E09F3F19F403C081E001C0B7
:1055D00080E080FD28C01C9FD0011D9FB00D1124CC
:1055E000A250BD4F16968D919C911797892B31F43F
:1055F00018968D919C911997019651F420813181D3
:105600004281538164817581868197810E94131D37
:105610001C9FF0011D9FF00D1124E250FD4F1482DC
:1056200013821092FB02C02FB4CF1092FD02109291
:10563000FC02DF91CF911F910F9108951092FA0211
:105640001092F902EEE5F3E08581811102C0148227
:105650001682379683E0E639F807B1F7089510927D
:10566000A1031092A0031092190180919F038093CF
:105670009E030E941E2B0C94BD2A3F924F925F9274
:105680006F927F928F929F92AF92BF92CF92DF9252
:10569000EF92FF920F931F93CF93DF93C0919E03DE
:1056A00097E0892E01E010E02CE0322E3EEF932EA1
:1056B0004424439480919F03C81709F478C0D0E034
:1056C000FE01EE0FFF1FEA56FC4F80819181889EFC
:1056D000D001899EB00D1124A25ABC4F14962C9172
:1056E0001497211161C05090FD02EEEFF2E020E02E
:1056F00030E0712C5D01251508F054C0E284F3847C
:10570000D501CD90DC906FEF7FEF612C462D50E0FE
:10571000DA01AA0FBB1FAC0DBD1D0D90BC91A02DD1
:10572000109731F0EA16FB0609F4BA016394EECF44
:105730006F3FBFEF7B0791F1D80102C0AA0FBB1FDB
:105740006A95E2F77A2AB80102C0660F771F6A9459
:10575000E2F7AB0141505109672D70E0461757073A
:10576000D9F4329EF001339EF00D1124E250FD4F2A
:10577000889ED001899EB00D1124A25ABC4F12966A
:105780002D913C9113973783268390829182918744
:10579000808715964C9206C0148213822F5F3F4F6C
:1057A0003C96A9CF0E948F2A2196C37083CF0E9476
:1057B000BD2ADF91CF911F910F91FF90EF90DF9065
:1057C000CF90BF90AF909F908F907F906F905F90A1
:1057D0004F903F900C941E2BCF93DF93CFE7D2E0F6
:1057E00060E0CE010E941C352196C11584E0D807E7
:1057F000B9F7DF91CF910895462F2091F7023091AC
:10580000F802232B91F47E3F39F46E3F71F48091BE
:10581000F5029091F6020895823038F47B3028F436
:105820006A3018F4672F0C94FA2E80E090E0089507
:105830006F927F928F929F92AF92BF92CF92DF92A0
:10584000EF92FF920F931F93CF93DF93CDB7DEB705
:1058500064970FB6F894DEBF0FBECDBFA090F302E1
:10586000B090F40281E090E09093F4028093F30210
:10587000612CC12CD12C712CE12CF12C00E010E01A
:1058800046018E0C9F1CF801EE0FFF1FE80DF91D5D
:10589000E550FA4F25913491402F672D862D0E94B7
:1058A000C42E0F5F1F4F0A30110569F784E1E80E1F
:1058B000F11C73949BE07912E1CFECEDCE0ED11C7C
:1058C0006394F2E06F12D7CFCE0101967C018AE09B
:1058D000F70111928A95E9F70FED11E04AE050E0E7
:1058E000B801C7010E944035065F1F4F0F32F2E03A
:1058F0001F07A1F77E018BE0E80EF11C8AE0F7019B
:1059000011928A95E9F78FEF9FEF988B8F8787E049
:105910008C8B4AE050E0B801C7010E944035065F19
:105920001F4F0F37F2E01F07A1F7B092F402A092C9
:10593000F30264960FB6F894DEBF0FBECDBFDF91C1
:10594000CF911F910F91FF90EF90DF90CF90BF907C
:10595000AF909F908F907F906F9008950895EF92F1
:10596000FF920F931F93CF93DF938C01CBECD3E087
:10597000E12CF12CF8018481E114F10419F488235D
:1059800039F002C0811104C09E014091D70302C0CA
:105990009E0140E06091D6038091D5030E94AF1F25
:1059A000FFEFEF1AFF0A239683E0E816F10411F7E0
:1059B0000E94011FF801848190E00196817099276F
:1059C0008483DF91CF911F910F91FF90EF90089505
:1059D0008F929F92AF92BF92CF92DF92EF92FF92FF
:1059E0000F931F93CF93DF93EC014C81042F10E0B2
:1059F0009801D8010E94C5359B01AC010E94DB359E
:105A00006B017C01E0E2F0E0E01BF10BA5E5B0E00A
:105A10009B01AC010E94DB354B015C019F01DF0162
:105A20000E94BD359B01AC010E94E6359B01AC0193
:105A30002C0D3D1D4E1D5F1DC501B4010E948E350C
:105A4000822FF22E99E2921728F093E0299F90017D
:105A500011240DC025E530E0281B3109C901880F4C
:105A6000991F280F391F37FF02C02F5F3F4F359511
:105A70002795122F10959BECC92E93E0D92E00E0AC
:105A800085E5E82EEF18802F869511F48E2D01C044
:105A90008F2D9601412F6091D6030E94AF1F0F5F9B
:105AA00083E0C80ED11C033071F70E94011F8C8166
:105AB000811102C091E003C0803219F49FEF9093EE
:105AC0001C0190911C01890F8C83DF91CF911F9154
:105AD0000F91FF90EF90DF90CF90BF90AF909F908D
